{
  "_format": "hh-sol-artifact-1",
  "contractName": "Pair",
  "sourceName": "contracts/pair/Pair.sol",
  "abi": [
    {
      "inputs": [],
      "name": "getPools",
      "outputs": [
        {
          "internalType": "address",
          "name": "",
          "type": "address"
        },
        {
          "internalType": "address",
          "name": "",
          "type": "address"
        }
      ],
      "stateMutability": "view",
      "type": "function"
    },
    {
      "inputs": [
        {
          "internalType": "uint256",
          "name": "timestamp",
          "type": "uint256"
        }
      ],
      "name": "updateAndGetHistoricalPrice",
      "outputs": [
        {
          "internalType": "int128",
          "name": "price64x64",
          "type": "int128"
        }
      ],
      "stateMutability": "nonpayable",
      "type": "function"
    },
    {
      "inputs": [],
      "name": "updateAndGetLatestData",
      "outputs": [
        {
          "internalType": "int128",
          "name": "price64x64",
          "type": "int128"
        },
        {
          "internalType": "int128",
          "name": "variance64x64",
          "type": "int128"
        }
      ],
      "stateMutability": "nonpayable",
      "type": "function"
    }
  ],
  "bytecode": "0x608060405234801561001057600080fd5b506117b4806100206000396000f3fe608060405234801561001057600080fd5b50600436106100415760003560e01c80631db8969a14610046578063673a2a1f1461006d578063dc4877b1146100d1575b600080fd5b61004e6100f7565b60408051600f93840b81529190920b6020820152015b60405180910390f35b7f150cff147270da078a1761e4f588a3b724d3c23c2d071a2d49c3c90c261540c4547f150cff147270da078a1761e4f588a3b724d3c23c2d071a2d49c3c90c261540c554604080516001600160a01b03938416815292909116602083015201610064565b6100e46100df366004611599565b610146565b604051600f9190910b8152602001610064565b600080610102610180565b7f150cff147270da078a1761e4f588a3b724d3c23c2d071a2d49c3c90c261540c061012d81426102ec565b6007909101549093600160801b909104600f0b92509050565b6000610150610180565b61017a7f150cff147270da078a1761e4f588a3b724d3c23c2d071a2d49c3c90c261540c08361031a565b92915050565b7f150cff147270da078a1761e4f588a3b724d3c23c2d071a2d49c3c90c261540c6547f150cff147270da078a1761e4f588a3b724d3c23c2d071a2d49c3c90c261540c09060006101d083836102ec565b600284015490915060009061020d906101f1906001600160a01b0316610419565b6003860154610208906001600160a01b0316610419565b610497565b905061021984426102ec565b600f0b61022b5761022b84428361052a565b600061024661023e600f84900b856105ad565b600f0b61061b565b6007860154909150600f0b61025d81838742610655565b6007870180546001600160801b0319166001600160801b03600f93840b1617908190556102a491839161029c9161016d91600160801b9004900b611618565b8488426106a3565b6102b09061016d61166a565b8660070160106101000a8154816001600160801b030219169083600f0b6001600160801b03160217905550428660060181905550505050505050565b600060088301816102ff610e1085611656565b8152602081019190915260400160002054600f0b9392505050565b600080610329610e1084611656565b600881901c6000818152600987016020526040812054929350909160ff84169190821b821c9061035c620e100042611656565b90505b8115801561036d5750808411155b1561039a5760098801600061038186611712565b955085815260200190815260200160002054915061035f565b816103ad5760009550505050505061017a565b600060805b80156103d65783811c156103d1576103ca8183611600565b93811c9391505b6103b2565b508860080160008260088860016103ed9190611600565b6103f892911b6116fb565b8152602081019190915260400160002054600f0b9998505050505050505050565b6000816001600160a01b031663feaf968c6040518163ffffffff1660e01b815260040160a06040518083038186803b15801561045457600080fd5b505afa158015610468573d6000803e3d6000fd5b505050506040513d601f19601f8201168201806040525081019061048c91906115b1565b509195945050505050565b6000816104a357600080fd5b6000808412156104b857836000039350600190505b60008312156104ca5760009290920391155b60006104d685856106f7565b90508115610504576001607f1b816001600160801b031611156104f857600080fd5b600003915061017a9050565b60016001607f1b03816001600160801b0316111561052157600080fd5b915061017a9050565b6000610538610e1084611656565b6000818152600886016020526040902080546001600160801b0319166001600160801b03600f86900b16179055905061057660ff82166101006116fb565b6001901b846009016000600884901c815260200190815260200160002060008282546105a29190611600565b909155505050505050565b600081600f0b600014156105c057600080fd5b600082600f0b604085600f0b901b816105e957634e487b7160e01b600052601260045260246000fd5b05905060016001607f1b0319811280159061060b575060016001607f1b038113155b61061457600080fd5b9392505050565b60008082600f0b1361062c57600080fd5b608061063783610891565b600f0b6fb17217f7d1cf79abc9e3b39803f2f6af02901c9050919050565b600080610662848461096c565b905061069961068287610679600160401b856109a2565b600f0b906109d5565b610690600f88900b846109d5565b600f0b90610a0b565b9695505050505050565b6000806106b0848461096c565b905060006106c2600f87900b896109a2565b90506106eb6106dd8861069084610679600f88900b826109d5565b610679600160401b856109a2565b98975050505050505050565b60008161070357600080fd5b60006001600160c01b03841161073c5782604085901b8161073457634e487b7160e01b600052601260045260246000fd5b04905061087d565b60c084811c6401000000008110610755576020918201911c5b620100008110610767576010918201911c5b6101008110610778576008918201911c5b60108110610788576004918201911c5b60048110610798576002918201911c5b600281106107a7576001820191505b60bf820360018603901c6001018260ff0387901b816107d657634e487b7160e01b600052601260045260246000fd5b0492506001600160801b038311156107ed57600080fd5b608085901c83026001600160801b038616840260c088901c604089901b82811015610819576001820391505b608084901b92900382811015610830576001820391505b829003608084901c821461085457634e487b7160e01b600052600160045260246000fd5b88818161087157634e487b7160e01b600052601260045260246000fd5b04870196505050505050505b6001600160801b0381111561061457600080fd5b60008082600f0b136108a257600080fd5b6000600f83900b600160401b81126108bc576040918201911d5b64010000000081126108d0576020918201911d5b6201000081126108e2576010918201911d5b61010081126108f3576008918201911d5b60108112610903576004918201911d5b60048112610913576002918201911d5b60028112610922576001820191505b603f19820160401b600f85900b607f8490031b6001603f1b5b60008113156109615790800260ff81901c8281029390930192607f011c9060011d61093b565b509095945050505050565b600061061461099b61098a61098186866116fb565b62093a80610a3e565b6109939061172d565b600f0b610a75565b600160401b905b6000600f82810b9084900b0360016001607f1b0319811280159061060b575060016001607f1b0381131561061457600080fd5b6000600f83810b9083900b0260401d60016001607f1b0319811280159061060b575060016001607f1b0381131561061457600080fd5b6000600f83810b9083900b0160016001607f1b0319811280159061060b575060016001607f1b0381131561061457600080fd5b600081610a4a57600080fd5b6000610a5684846106f7565b905060016001607f1b036001600160801b038216111561061457600080fd5b6000600160461b82600f0b12610a8a57600080fd5b683fffffffffffffffff1982600f0b1215610aa757506000919050565b61017a608083600f0b700171547652b82fe1777d0ffda0d23a7d1202901d6000600160461b82600f0b12610ada57600080fd5b683fffffffffffffffff1982600f0b1215610af757506000919050565b6001607f1b60006001603f1b8416600f0b1315610b255770016a09e667f3bcc908b2fb1366ea957d3e0260801c5b60008367400000000000000016600f0b1315610b52577001306fe0a31b7152de8d5a46305c85edec0260801c5b60008367200000000000000016600f0b1315610b7f577001172b83c7d517adcdf7c8c50eb14a791f0260801c5b60008367100000000000000016600f0b1315610bac5770010b5586cf9890f6298b92b71842a983630260801c5b60008367080000000000000016600f0b1315610bd9577001059b0d31585743ae7c548eb68ca417fd0260801c5b60008367040000000000000016600f0b1315610c0657700102c9a3e778060ee6f7caca4f7a29bde80260801c5b60008367020000000000000016600f0b1315610c335770010163da9fb33356d84a66ae336dcdfa3f0260801c5b60008367010000000000000016600f0b1315610c6057700100b1afa5abcbed6129ab13ec11dc95430260801c5b600083668000000000000016600f0b1315610c8c5770010058c86da1c09ea1ff19d294cf2f679b0260801c5b600083664000000000000016600f0b1315610cb8577001002c605e2e8cec506d21bfc89a23a00f0260801c5b600083662000000000000016600f0b1315610ce457700100162f3904051fa128bca9c55c31e5df0260801c5b600083661000000000000016600f0b1315610d10577001000b175effdc76ba38e31671ca9397250260801c5b600083660800000000000016600f0b1315610d3c57700100058ba01fb9f96d6cacd4b180917c3d0260801c5b600083660400000000000016600f0b1315610d685770010002c5cc37da9491d0985c348c68e7b30260801c5b600083660200000000000016600f0b1315610d94577001000162e525ee054754457d59952920260260801c5b600083660100000000000016600f0b1315610dc05770010000b17255775c040618bf4a4ade83fc0260801c5b6000836580000000000016600f0b1315610deb577001000058b91b5bc9ae2eed81e9b7d4cfab0260801c5b6000836540000000000016600f0b1315610e1657700100002c5c89d5ec6ca4d7c8acc017b7c90260801c5b6000836520000000000016600f0b1315610e415770010000162e43f4f831060e02d839a9d16d0260801c5b6000836510000000000016600f0b1315610e6c57700100000b1721bcfc99d9f890ea069117630260801c5b6000836508000000000016600f0b1315610e975770010000058b90cf1e6d97f9ca14dbcc16280260801c5b6000836504000000000016600f0b1315610ec2577001000002c5c863b73f016468f6bac5ca2b0260801c5b6000836502000000000016600f0b1315610eed57700100000162e430e5a18f6119e3c02282a50260801c5b6000836501000000000016600f0b1315610f18577001000000b1721835514b86e6d96efd1bfe0260801c5b60008364800000000016600f0b1315610f4257700100000058b90c0b48c6be5df846c5b2ef0260801c5b60008364400000000016600f0b1315610f6c5770010000002c5c8601cc6b9e94213c72737a0260801c5b60008364200000000016600f0b1315610f96577001000000162e42fff037df38aa2b219f060260801c5b60008364100000000016600f0b1315610fc05770010000000b17217fba9c739aa5819f44f90260801c5b60008364080000000016600f0b1315610fea577001000000058b90bfcdee5acd3c1cedc8230260801c5b60008364040000000016600f0b131561101457700100000002c5c85fe31f35a6a30da1be500260801c5b60008364020000000016600f0b131561103e5770010000000162e42ff0999ce3541b9fffcf0260801c5b60008364010000000016600f0b131561106857700100000000b17217f80f4ef5aadda455540260801c5b600083638000000016600f0b13156110915770010000000058b90bfbf8479bd5a81b51ad0260801c5b600083634000000016600f0b13156110ba577001000000002c5c85fdf84bd62ae30a74cc0260801c5b600083632000000016600f0b13156110e357700100000000162e42fefb2fed257559bdaa0260801c5b600083631000000016600f0b131561110c577001000000000b17217f7d5a7716bba4a9ae0260801c5b600083630800000016600f0b131561113557700100000000058b90bfbe9ddbac5e109cce0260801c5b600083630400000016600f0b131561115e5770010000000002c5c85fdf4b15de6f17eb0d0260801c5b600083630200000016600f0b1315611187577001000000000162e42fefa494f1478fde050260801c5b600083630100000016600f0b13156111b05770010000000000b17217f7d20cf927c8e94c0260801c5b6000836280000016600f0b13156111d8577001000000000058b90bfbe8f71cb4e4b33d0260801c5b6000836240000016600f0b131561120057700100000000002c5c85fdf477b662b269450260801c5b6000836220000016600f0b13156112285770010000000000162e42fefa3ae53369388c0260801c5b6000836210000016600f0b131561125057700100000000000b17217f7d1d351a389d400260801c5b6000836208000016600f0b13156112785770010000000000058b90bfbe8e8b2d3d4ede0260801c5b6000836204000016600f0b13156112a0577001000000000002c5c85fdf4741bea6e77e0260801c5b6000836202000016600f0b13156112c857700100000000000162e42fefa39fe95583c20260801c5b6000836201000016600f0b13156112f0577001000000000000b17217f7d1cfb72b45e10260801c5b60008361800016600f0b131561131757700100000000000058b90bfbe8e7cc35c3f00260801c5b60008361400016600f0b131561133e5770010000000000002c5c85fdf473e242ea380260801c5b60008361200016600f0b1315611365577001000000000000162e42fefa39f02b772c0260801c5b60008361100016600f0b131561138c5770010000000000000b17217f7d1cf7d83c1a0260801c5b60008361080016600f0b13156113b3577001000000000000058b90bfbe8e7bdcbe2e0260801c5b60008361040016600f0b13156113da57700100000000000002c5c85fdf473dea871f0260801c5b60008361020016600f0b13156114015770010000000000000162e42fefa39ef44d910260801c5b60008361010016600f0b131561142857700100000000000000b17217f7d1cf79e9490260801c5b600083608016600f0b131561144e5770010000000000000058b90bfbe8e7bce5440260801c5b600083604016600f0b1315611474577001000000000000002c5c85fdf473de6eca0260801c5b600083602016600f0b131561149a57700100000000000000162e42fefa39ef366f0260801c5b600083601016600f0b13156114c0577001000000000000000b17217f7d1cf79afa0260801c5b600083600816600f0b13156114e657700100000000000000058b90bfbe8e7bcd6d0260801c5b600083600416600f0b131561150c5770010000000000000002c5c85fdf473de6b20260801c5b600083600216600f0b1315611532577001000000000000000162e42fefa39ef3580260801c5b600083600116600f0b13156115585770010000000000000000b17217f7d1cf79ab0260801c5b600f83810b60401d603f03900b1c60016001607f1b0381111561017a57600080fd5b805169ffffffffffffffffffff8116811461159457600080fd5b919050565b6000602082840312156115aa578081fd5b5035919050565b600080600080600060a086880312156115c8578081fd5b6115d18661157a565b94506020860151935060408601519250606086015191506115f46080870161157a565b90509295509295909350565b6000821982111561161357611613611752565b500190565b600081600f0b83600f0b8061162f5761162f611768565b60016001607f1b031982146000198214161561164d5761164d611752565b90059392505050565b60008261166557611665611768565b500490565b600081600f0b83600f0b60016001607f1b038382138484138383048511828216161561169857611698611752565b60016001607f1b0319868512828116878305871216156116ba576116ba611752565b8787129250858205871284841616156116d5576116d5611752565b858505871281841616156116eb576116eb611752565b5050509290910295945050505050565b60008282101561170d5761170d611752565b500390565b600060001982141561172657611726611752565b5060010190565b600081600f0b60016001607f1b031981141561174b5761174b611752565b9003919050565b634e487b7160e01b600052601160045260246000fd5b634e487b7160e01b600052601260045260246000fdfea26469706673582212202784736bb4883c633d60e818a68b5b3c1bce828deb5ee36ed404601d8e5e11b664736f6c63430008040033",
  "linkReferences": {},
  "deployedLinkReferences": {}
}