{
  "_format": "hh-sol-artifact-1",
  "contractName": "Pool",
  "sourceName": "contracts/pool/Pool.sol",
  "abi": [
    {
      "inputs": [
        {
          "internalType": "address",
          "name": "weth",
          "type": "address"
        }
      ],
      "stateMutability": "nonpayable",
      "type": "constructor"
    },
    {
      "anonymous": false,
      "inputs": [
        {
          "indexed": true,
          "internalType": "address",
          "name": "owner",
          "type": "address"
        },
        {
          "indexed": true,
          "internalType": "address",
          "name": "spender",
          "type": "address"
        },
        {
          "indexed": false,
          "internalType": "uint256",
          "name": "value",
          "type": "uint256"
        }
      ],
      "name": "Approval",
      "type": "event"
    },
    {
      "anonymous": false,
      "inputs": [
        {
          "indexed": true,
          "internalType": "address",
          "name": "account",
          "type": "address"
        },
        {
          "indexed": true,
          "internalType": "address",
          "name": "operator",
          "type": "address"
        },
        {
          "indexed": false,
          "internalType": "bool",
          "name": "approved",
          "type": "bool"
        }
      ],
      "name": "ApprovalForAll",
      "type": "event"
    },
    {
      "anonymous": false,
      "inputs": [
        {
          "indexed": true,
          "internalType": "address",
          "name": "base",
          "type": "address"
        },
        {
          "indexed": true,
          "internalType": "address",
          "name": "underlying",
          "type": "address"
        },
        {
          "indexed": true,
          "internalType": "address",
          "name": "treasury",
          "type": "address"
        },
        {
          "indexed": false,
          "internalType": "int128",
          "name": "initialCLevel",
          "type": "int128"
        }
      ],
      "name": "CreatePool",
      "type": "event"
    },
    {
      "anonymous": false,
      "inputs": [
        {
          "indexed": false,
          "internalType": "address",
          "name": "account",
          "type": "address"
        },
        {
          "indexed": false,
          "internalType": "uint256",
          "name": "amount",
          "type": "uint256"
        }
      ],
      "name": "Deposit",
      "type": "event"
    },
    {
      "anonymous": false,
      "inputs": [
        {
          "indexed": false,
          "internalType": "address",
          "name": "account",
          "type": "address"
        },
        {
          "indexed": false,
          "internalType": "uint256",
          "name": "amount",
          "type": "uint256"
        }
      ],
      "name": "Exercise",
      "type": "event"
    },
    {
      "anonymous": false,
      "inputs": [
        {
          "indexed": false,
          "internalType": "address",
          "name": "account",
          "type": "address"
        },
        {
          "indexed": false,
          "internalType": "uint256",
          "name": "amount",
          "type": "uint256"
        }
      ],
      "name": "Purchase",
      "type": "event"
    },
    {
      "anonymous": false,
      "inputs": [
        {
          "indexed": true,
          "internalType": "address",
          "name": "from",
          "type": "address"
        },
        {
          "indexed": true,
          "internalType": "address",
          "name": "to",
          "type": "address"
        },
        {
          "indexed": false,
          "internalType": "uint256",
          "name": "value",
          "type": "uint256"
        }
      ],
      "name": "Transfer",
      "type": "event"
    },
    {
      "anonymous": false,
      "inputs": [
        {
          "indexed": true,
          "internalType": "address",
          "name": "operator",
          "type": "address"
        },
        {
          "indexed": true,
          "internalType": "address",
          "name": "from",
          "type": "address"
        },
        {
          "indexed": true,
          "internalType": "address",
          "name": "to",
          "type": "address"
        },
        {
          "indexed": false,
          "internalType": "uint256[]",
          "name": "ids",
          "type": "uint256[]"
        },
        {
          "indexed": false,
          "internalType": "uint256[]",
          "name": "values",
          "type": "uint256[]"
        }
      ],
      "name": "TransferBatch",
      "type": "event"
    },
    {
      "anonymous": false,
      "inputs": [
        {
          "indexed": true,
          "internalType": "address",
          "name": "operator",
          "type": "address"
        },
        {
          "indexed": true,
          "internalType": "address",
          "name": "from",
          "type": "address"
        },
        {
          "indexed": true,
          "internalType": "address",
          "name": "to",
          "type": "address"
        },
        {
          "indexed": false,
          "internalType": "uint256",
          "name": "id",
          "type": "uint256"
        },
        {
          "indexed": false,
          "internalType": "uint256",
          "name": "value",
          "type": "uint256"
        }
      ],
      "name": "TransferSingle",
      "type": "event"
    },
    {
      "anonymous": false,
      "inputs": [
        {
          "indexed": false,
          "internalType": "string",
          "name": "value",
          "type": "string"
        },
        {
          "indexed": true,
          "internalType": "uint256",
          "name": "id",
          "type": "uint256"
        }
      ],
      "name": "URI",
      "type": "event"
    },
    {
      "anonymous": false,
      "inputs": [
        {
          "indexed": false,
          "internalType": "int128",
          "name": "cLevel64x64",
          "type": "int128"
        }
      ],
      "name": "UpdateCLevel",
      "type": "event"
    },
    {
      "anonymous": false,
      "inputs": [
        {
          "indexed": false,
          "internalType": "address",
          "name": "account",
          "type": "address"
        },
        {
          "indexed": false,
          "internalType": "uint256",
          "name": "amount",
          "type": "uint256"
        }
      ],
      "name": "Withdrawal",
      "type": "event"
    },
    {
      "inputs": [
        {
          "internalType": "uint256",
          "name": "id",
          "type": "uint256"
        }
      ],
      "name": "accountsByToken",
      "outputs": [
        {
          "internalType": "address[]",
          "name": "",
          "type": "address[]"
        }
      ],
      "stateMutability": "view",
      "type": "function"
    },
    {
      "inputs": [
        {
          "internalType": "address",
          "name": "holder",
          "type": "address"
        },
        {
          "internalType": "address",
          "name": "spender",
          "type": "address"
        }
      ],
      "name": "allowance",
      "outputs": [
        {
          "internalType": "uint256",
          "name": "",
          "type": "uint256"
        }
      ],
      "stateMutability": "view",
      "type": "function"
    },
    {
      "inputs": [
        {
          "internalType": "address",
          "name": "spender",
          "type": "address"
        },
        {
          "internalType": "uint256",
          "name": "amount",
          "type": "uint256"
        }
      ],
      "name": "approve",
      "outputs": [
        {
          "internalType": "bool",
          "name": "",
          "type": "bool"
        }
      ],
      "stateMutability": "nonpayable",
      "type": "function"
    },
    {
      "inputs": [
        {
          "internalType": "address",
          "name": "account",
          "type": "address"
        },
        {
          "internalType": "uint256",
          "name": "id",
          "type": "uint256"
        }
      ],
      "name": "balanceOf",
      "outputs": [
        {
          "internalType": "uint256",
          "name": "",
          "type": "uint256"
        }
      ],
      "stateMutability": "view",
      "type": "function"
    },
    {
      "inputs": [
        {
          "internalType": "address",
          "name": "account",
          "type": "address"
        }
      ],
      "name": "balanceOf",
      "outputs": [
        {
          "internalType": "uint256",
          "name": "",
          "type": "uint256"
        }
      ],
      "stateMutability": "view",
      "type": "function"
    },
    {
      "inputs": [
        {
          "internalType": "address[]",
          "name": "accounts",
          "type": "address[]"
        },
        {
          "internalType": "uint256[]",
          "name": "ids",
          "type": "uint256[]"
        }
      ],
      "name": "balanceOfBatch",
      "outputs": [
        {
          "internalType": "uint256[]",
          "name": "",
          "type": "uint256[]"
        }
      ],
      "stateMutability": "view",
      "type": "function"
    },
    {
      "inputs": [],
      "name": "decimals",
      "outputs": [
        {
          "internalType": "uint8",
          "name": "",
          "type": "uint8"
        }
      ],
      "stateMutability": "view",
      "type": "function"
    },
    {
      "inputs": [
        {
          "internalType": "address",
          "name": "spender",
          "type": "address"
        },
        {
          "internalType": "uint256",
          "name": "amount",
          "type": "uint256"
        }
      ],
      "name": "decreaseAllowance",
      "outputs": [
        {
          "internalType": "bool",
          "name": "",
          "type": "bool"
        }
      ],
      "stateMutability": "nonpayable",
      "type": "function"
    },
    {
      "inputs": [
        {
          "internalType": "uint256",
          "name": "amount",
          "type": "uint256"
        }
      ],
      "name": "deposit",
      "outputs": [],
      "stateMutability": "payable",
      "type": "function"
    },
    {
      "inputs": [
        {
          "internalType": "uint256",
          "name": "tokenId",
          "type": "uint256"
        },
        {
          "internalType": "uint256",
          "name": "amount",
          "type": "uint256"
        }
      ],
      "name": "exercise",
      "outputs": [],
      "stateMutability": "nonpayable",
      "type": "function"
    },
    {
      "inputs": [],
      "name": "getPair",
      "outputs": [
        {
          "internalType": "address",
          "name": "",
          "type": "address"
        }
      ],
      "stateMutability": "view",
      "type": "function"
    },
    {
      "inputs": [],
      "name": "getUnderlying",
      "outputs": [
        {
          "internalType": "address",
          "name": "",
          "type": "address"
        }
      ],
      "stateMutability": "view",
      "type": "function"
    },
    {
      "inputs": [
        {
          "internalType": "address",
          "name": "spender",
          "type": "address"
        },
        {
          "internalType": "uint256",
          "name": "amount",
          "type": "uint256"
        }
      ],
      "name": "increaseAllowance",
      "outputs": [
        {
          "internalType": "bool",
          "name": "",
          "type": "bool"
        }
      ],
      "stateMutability": "nonpayable",
      "type": "function"
    },
    {
      "inputs": [
        {
          "internalType": "address",
          "name": "account",
          "type": "address"
        },
        {
          "internalType": "address",
          "name": "operator",
          "type": "address"
        }
      ],
      "name": "isApprovedForAll",
      "outputs": [
        {
          "internalType": "bool",
          "name": "",
          "type": "bool"
        }
      ],
      "stateMutability": "view",
      "type": "function"
    },
    {
      "inputs": [],
      "name": "name",
      "outputs": [
        {
          "internalType": "string",
          "name": "",
          "type": "string"
        }
      ],
      "stateMutability": "view",
      "type": "function"
    },
    {
      "inputs": [
        {
          "internalType": "uint64",
          "name": "maturity",
          "type": "uint64"
        },
        {
          "internalType": "int128",
          "name": "strike64x64",
          "type": "int128"
        },
        {
          "internalType": "uint256",
          "name": "amount",
          "type": "uint256"
        },
        {
          "internalType": "uint256",
          "name": "maxCost",
          "type": "uint256"
        }
      ],
      "name": "purchase",
      "outputs": [
        {
          "internalType": "uint256",
          "name": "cost",
          "type": "uint256"
        }
      ],
      "stateMutability": "payable",
      "type": "function"
    },
    {
      "inputs": [
        {
          "internalType": "int128",
          "name": "variance64x64",
          "type": "int128"
        },
        {
          "internalType": "uint64",
          "name": "maturity",
          "type": "uint64"
        },
        {
          "internalType": "int128",
          "name": "strike64x64",
          "type": "int128"
        },
        {
          "internalType": "int128",
          "name": "spot64x64",
          "type": "int128"
        },
        {
          "internalType": "uint256",
          "name": "amount",
          "type": "uint256"
        }
      ],
      "name": "quote",
      "outputs": [
        {
          "internalType": "int128",
          "name": "cost64x64",
          "type": "int128"
        },
        {
          "internalType": "int128",
          "name": "cLevel64x64",
          "type": "int128"
        }
      ],
      "stateMutability": "view",
      "type": "function"
    },
    {
      "inputs": [
        {
          "internalType": "uint256",
          "name": "tokenId",
          "type": "uint256"
        },
        {
          "internalType": "uint256",
          "name": "amount",
          "type": "uint256"
        }
      ],
      "name": "reassign",
      "outputs": [
        {
          "internalType": "uint256",
          "name": "cost",
          "type": "uint256"
        }
      ],
      "stateMutability": "nonpayable",
      "type": "function"
    },
    {
      "inputs": [
        {
          "internalType": "address",
          "name": "from",
          "type": "address"
        },
        {
          "internalType": "address",
          "name": "to",
          "type": "address"
        },
        {
          "internalType": "uint256[]",
          "name": "ids",
          "type": "uint256[]"
        },
        {
          "internalType": "uint256[]",
          "name": "amounts",
          "type": "uint256[]"
        },
        {
          "internalType": "bytes",
          "name": "data",
          "type": "bytes"
        }
      ],
      "name": "safeBatchTransferFrom",
      "outputs": [],
      "stateMutability": "nonpayable",
      "type": "function"
    },
    {
      "inputs": [
        {
          "internalType": "address",
          "name": "from",
          "type": "address"
        },
        {
          "internalType": "address",
          "name": "to",
          "type": "address"
        },
        {
          "internalType": "uint256",
          "name": "id",
          "type": "uint256"
        },
        {
          "internalType": "uint256",
          "name": "amount",
          "type": "uint256"
        },
        {
          "internalType": "bytes",
          "name": "data",
          "type": "bytes"
        }
      ],
      "name": "safeTransferFrom",
      "outputs": [],
      "stateMutability": "nonpayable",
      "type": "function"
    },
    {
      "inputs": [
        {
          "internalType": "address",
          "name": "operator",
          "type": "address"
        },
        {
          "internalType": "bool",
          "name": "status",
          "type": "bool"
        }
      ],
      "name": "setApprovalForAll",
      "outputs": [],
      "stateMutability": "nonpayable",
      "type": "function"
    },
    {
      "inputs": [
        {
          "internalType": "bytes4",
          "name": "interfaceId",
          "type": "bytes4"
        }
      ],
      "name": "supportsInterface",
      "outputs": [
        {
          "internalType": "bool",
          "name": "",
          "type": "bool"
        }
      ],
      "stateMutability": "view",
      "type": "function"
    },
    {
      "inputs": [],
      "name": "symbol",
      "outputs": [
        {
          "internalType": "string",
          "name": "",
          "type": "string"
        }
      ],
      "stateMutability": "view",
      "type": "function"
    },
    {
      "inputs": [
        {
          "internalType": "address",
          "name": "account",
          "type": "address"
        }
      ],
      "name": "tokensByAccount",
      "outputs": [
        {
          "internalType": "uint256[]",
          "name": "",
          "type": "uint256[]"
        }
      ],
      "stateMutability": "view",
      "type": "function"
    },
    {
      "inputs": [
        {
          "internalType": "uint256",
          "name": "id",
          "type": "uint256"
        }
      ],
      "name": "totalHolders",
      "outputs": [
        {
          "internalType": "uint256",
          "name": "",
          "type": "uint256"
        }
      ],
      "stateMutability": "view",
      "type": "function"
    },
    {
      "inputs": [],
      "name": "totalSupply",
      "outputs": [
        {
          "internalType": "uint256",
          "name": "",
          "type": "uint256"
        }
      ],
      "stateMutability": "view",
      "type": "function"
    },
    {
      "inputs": [
        {
          "internalType": "uint256",
          "name": "id",
          "type": "uint256"
        }
      ],
      "name": "totalSupply",
      "outputs": [
        {
          "internalType": "uint256",
          "name": "",
          "type": "uint256"
        }
      ],
      "stateMutability": "view",
      "type": "function"
    },
    {
      "inputs": [
        {
          "internalType": "address",
          "name": "recipient",
          "type": "address"
        },
        {
          "internalType": "uint256",
          "name": "amount",
          "type": "uint256"
        }
      ],
      "name": "transfer",
      "outputs": [
        {
          "internalType": "bool",
          "name": "",
          "type": "bool"
        }
      ],
      "stateMutability": "nonpayable",
      "type": "function"
    },
    {
      "inputs": [
        {
          "internalType": "address",
          "name": "sender",
          "type": "address"
        },
        {
          "internalType": "address",
          "name": "recipient",
          "type": "address"
        },
        {
          "internalType": "uint256",
          "name": "amount",
          "type": "uint256"
        }
      ],
      "name": "transferFrom",
      "outputs": [
        {
          "internalType": "bool",
          "name": "",
          "type": "bool"
        }
      ],
      "stateMutability": "nonpayable",
      "type": "function"
    },
    {
      "inputs": [
        {
          "internalType": "uint256",
          "name": "amount",
          "type": "uint256"
        }
      ],
      "name": "withdraw",
      "outputs": [],
      "stateMutability": "nonpayable",
      "type": "function"
    }
  ],
  "bytecode": "0x60a06040523480156200001157600080fd5b5060405162005688380380620056888339810160408190526200003491620000f4565b806001600160a01b03166080816001600160a01b031660601b81525050600062000068620000d060201b62001f561760201c565b8054600282015460078301546003840154604051600f91820b90910b81529394506001600160a01b03928316939183169216907f55d41e184819c4de6bf4e72ddf38391954c16999462fee1b215b014525fbf8959060200160405180910390a4505062000124565b7f7d3a375659e5dfb99fee23ac09fe538c9b52c55fec8a9063adb0489a17e982dd90565b60006020828403121562000106578081fd5b81516001600160a01b03811681146200011d578182fd5b9392505050565b60805160601c61553e6200014a600039600081816129420152612988015261553e6000f3fe6080604052600436106101cc5760003560e01c806370a08231116100f7578063a86265bb11610095578063c1f1b1b511610064578063c1f1b1b5146105a3578063dd62ed3e146105b8578063e985e9c51461061d578063f242432a1461063d57600080fd5b8063a86265bb14610504578063a9059cbb14610524578063b6b55f2514610544578063bd85b0391461055757600080fd5b806395e759ac116100d157806395e759ac146104845780639816f47314610497578063a22cb465146104c4578063a457c2d7146104e457600080fd5b806370a082311461042f57806385bff2e71461044f57806395d89b411461046f57600080fd5b80632e1a7d4d1161016f578063370494fd1161013e578063370494fd1461037b57806339509351146103b55780634e1273f4146103d55780636dcfd8411461040257600080fd5b80632e1a7d4d146102d85780632eb2c2d6146102fa5780632f6c7a101461031a578063313ce5671461033a57600080fd5b8063095ea7b3116101ab578063095ea7b31461025657806313ba55df1461027657806318160ddd1461029657806323b872dd146102b857600080fd5b8062fdd58e146101d157806301ffc9a71461020457806306fdde0314610234575b600080fd5b3480156101dd57600080fd5b506101f16101ec366004614c16565b61065d565b6040519081526020015b60405180910390f35b34801561021057600080fd5b5061022461021f366004614d25565b610706565b60405190151581526020016101fb565b34801561024057600080fd5b50610249610747565b6040516101fb9190615031565b34801561026257600080fd5b50610224610271366004614c16565b6107f8565b34801561028257600080fd5b506101f1610291366004614e08565b61080e565b3480156102a257600080fd5b506000805160206154a9833981519152546101f1565b3480156102c457600080fd5b506102246102d3366004614b43565b610832565b3480156102e457600080fd5b506102f86102f3366004614e08565b6108a0565b005b34801561030657600080fd5b506102f8610315366004614a9e565b6109e4565b34801561032657600080fd5b506101f1610335366004614e20565b610a31565b34801561034657600080fd5b507f2967a798b92539a1b9eefe4d8eb931f96b68d27665e276f1bee2d5db7f7430495460405160ff90911681526020016101fb565b34801561038757600080fd5b5061039b610396366004614da7565b610dce565b60408051600f93840b81529190920b6020820152016101fb565b3480156103c157600080fd5b506102246103d0366004614c16565b610ebf565b3480156103e157600080fd5b506103f56103f0366004614c3f565b610f18565b6040516101fb9190614ff9565b34801561040e57600080fd5b5061042261041d366004614e08565b61115d565b6040516101fb9190614fac565b34801561043b57600080fd5b506101f161044a366004614a52565b611244565b34801561045b57600080fd5b506103f561046a366004614a52565b61126c565b34801561047b57600080fd5b5061024961135a565b6101f1610492366004614e41565b61138b565b3480156104a357600080fd5b506104ac6119b7565b6040516001600160a01b0390911681526020016101fb565b3480156104d057600080fd5b506102f86104df366004614be0565b6119d3565b3480156104f057600080fd5b506102246104ff366004614c16565b611ac9565b34801561051057600080fd5b506102f861051f366004614e20565b611b17565b34801561053057600080fd5b5061022461053f366004614c16565b611df9565b6102f8610552366004614e08565b611e06565b34801561056357600080fd5b506101f1610572366004614e08565b60009081527fb31c2c74f86ca3ce94d901f5f5bbe66f7161eec2f7b5aa0b75a86371436424ea602052604090205490565b3480156105af57600080fd5b506104ac611ea7565b3480156105c457600080fd5b506101f16105d3366004614a6c565b6001600160a01b0391821660009081527fc991b2e918acaba8e5721668ed0b1982684e5a8692a621bcd2d7ef326bb015b56020908152604080832093909416825291909152205490565b34801561062957600080fd5b50610224610638366004614a6c565b611ec3565b34801561064957600080fd5b506102f8610658366004614b7e565b611f10565b60006001600160a01b0383166106ce5760405162461bcd60e51b815260206004820152602b60248201527f455243313135353a2062616c616e636520717565727920666f7220746865207a60448201526a65726f206164647265737360a81b60648201526084015b60405180910390fd5b6000805160206154e98339815191526000838152602091825260408082206001600160a01b0387168352909252205490505b92915050565b6001600160e01b0319811660009081527f326d0c59a7612f6a9919e2a8ee333c80ba689d8ba2634de89c85cbb04832e705602052604081205460ff16610700565b60607f2967a798b92539a1b9eefe4d8eb931f96b68d27665e276f1bee2d5db7f74304780546107759061528d565b80601f01602080910402602001604051908101604052809291908181526020018280546107a19061528d565b80156107ee5780601f106107c3576101008083540402835291602001916107ee565b820191906000526020600020905b8154815290600101906020018083116107d157829003601f168201915b5050505050905090565b6000610805338484611f7a565b50600192915050565b60008181526000805160206154c983398151915260205260408120610700906120be565b6001600160a01b03831660009081527fc991b2e918acaba8e5721668ed0b1982684e5a8692a621bcd2d7ef326bb015b56020908152604080832033808552925282205461088b918691610886908690615276565b611f7a565b6108968484846120c8565b5060019392505050565b60006108aa611f56565b33600090815260048201602052604090205490915042906108ce906201518061513d565b106109305760405162461bcd60e51b815260206004820152602c60248201527f506f6f6c3a206c6971756964697479206d7573742072656d61696e206c6f636b60448201526b656420666f7220312064617960a01b60648201526084016106c5565b600061093b82612258565b90506109473384612283565b600061095283612258565b600284015490915061096d906001600160a01b031685612385565b60408051338152602081018690527f7fcf532c15f0a6db0bd6d0e038bea71d30d808c7d98cb3bf7268a95bf5081b65910160405180910390a16109b1838383612456565b6003830154604051600f91820b90910b81526000805160206154898339815191529060200160405180910390a150505050565b6001600160a01b038516331480610a005750610a008533611ec3565b610a1c5760405162461bcd60e51b81526004016106c59061508c565b610a2a33868686868661247e565b5050505050565b600060f883901c608084901c8460018381811115610a5f57634e487b7160e01b600052602160045260246000fd5b14610aa75760405162461bcd60e51b8152602060048201526018602482015277506f6f6c3a20696e76616c696420746f6b656e207479706560401b60448201526064016106c5565b42826001600160401b031611610aff5760405162461bcd60e51b815260206004820181905260248201527f506f6f6c3a206f7074696f6e206d757374206e6f74206265206578706972656460448201526064016106c5565b6000610b09611f56565b905060008060008360010160009054906101000a90046001600160a01b03166001600160a01b0316631db8969a6040518163ffffffff1660e01b81526004016040805180830381600087803b158015610b6157600080fd5b505af1158015610b75573d6000803e3d6000fd5b505050506040513d601f19601f82011682018060405250810190610b999190614d79565b91509150600080610bad838989878f610dce565b60028801549193509150610bd090600f84900b90600160a01b900460ff166124a2565b60028701546003880154919b50600091610c3b91600160a01b900460ff1690610c3290610c0c90600160401b90600160801b9004600f0b6124c4565b60038b0154610c2990600f89810b91600160801b9004900b6124f8565b600f0b9061252e565b600f0b906124a2565b9050610c748760020160009054906101000a90046001600160a01b0316828d8f610c659190615276565b610c6f9190615276565b612385565b6000610c7f88612258565b9050610ca8610ca18483610c97600f82900b896124c4565b600160401b612594565b89906125e3565b6003880154604051600f91820b90910b81526000805160206154898339815191529060200160405180910390a18754610cea906001600160a01b031683612616565b610cf4828d615276565b965050505050505060005b8715610dc2576001600160a01b0390811660009081526005840160205260408120549091169088610d30848261513d565b610d3984611244565b610d439190615257565b610d4d9190615155565b905080891015610d5a5750875b610d64818a615276565b9850600089610d738386615257565b610d7d9190615155565b9050610d898185615276565b9350610d9e83610d998385615276565b612283565b610dbb3333858e8660405180602001604052806000815250612719565b5050610cff565b50505050505092915050565b6000806000610ddb611f56565b90506000610dff610df5426001600160401b038b16615276565b6301e1338061282e565b90506000610e1e868460020160149054906101000a900460ff16612865565b90506000610e2b84612258565b90506000610e3d600f83900b8461287b565b90506000610e688d8c8c888a60030160009054906101000a9004600f0b8888600160401b60016128ae565b6003880154909850909150610ead908b90610ea490610e9690600160401b90600160801b9004600f0b6124c4565b610ea4600f86900b896124f8565b600f0b906124f8565b97505050505050509550959350505050565b6000610805338484600080516020615469833981519152336000908152600191909101602090815260408083206001600160a01b038b16845290915281208054909190610f0d90849061513d565b925050819055611f7a565b60608151835114610f7d5760405162461bcd60e51b815260206004820152602960248201527f455243313135353a206163636f756e747320616e6420696473206c656e677468604482015268040dad2e6dac2e8c6d60bb1b60648201526084016106c5565b82516000805160206154e9833981519152906000906001600160401b03811115610fb757634e487b7160e01b600052604160045260246000fd5b604051908082528060200260200182016040528015610fe0578160200160208202803683370190505b50905060005b85518110156111545760006001600160a01b031686828151811061101a57634e487b7160e01b600052603260045260246000fd5b60200260200101516001600160a01b031614156110935760405162461bcd60e51b815260206004820152603160248201527f455243313135353a2062617463682062616c616e636520717565727920666f7260448201527020746865207a65726f206164647265737360781b60648201526084016106c5565b8260008683815181106110b657634e487b7160e01b600052603260045260246000fd5b6020026020010151815260200190815260200160002060008783815181106110ee57634e487b7160e01b600052603260045260246000fd5b60200260200101516001600160a01b03166001600160a01b031681526020019081526020016000205482828151811061113757634e487b7160e01b600052603260045260246000fd5b60209081029190910101528061114c816152f4565b915050610fe6565b50949350505050565b60008181526000805160206154c983398151915260205260408120606091611184826120be565b6001600160401b038111156111a957634e487b7160e01b600052604160045260246000fd5b6040519080825280602002602001820160405280156111d2578160200160208202803683370190505b50905060005b6111e1836120be565b81101561123c576111f28382612934565b82828151811061121257634e487b7160e01b600052603260045260246000fd5b6001600160a01b039092166020928302919091019091015280611234816152f4565b9150506111d8565b509392505050565b6001600160a01b03166000908152600080516020615469833981519152602052604090205490565b6001600160a01b03811660009081527fb31c2c74f86ca3ce94d901f5f5bbe66f7161eec2f7b5aa0b75a86371436424ec602052604081206060916112af826120be565b6001600160401b038111156112d457634e487b7160e01b600052604160045260246000fd5b6040519080825280602002602001820160405280156112fd578160200160208202803683370190505b50905060005b61130c836120be565b81101561123c5761131d8382612934565b82828151811061133d57634e487b7160e01b600052603260045260246000fd5b602090810291909101015280611352816152f4565b915050611303565b60607f2967a798b92539a1b9eefe4d8eb931f96b68d27665e276f1bee2d5db7f74304760010180546107759061528d565b60006113a36000805160206154a98339815191525490565b8311156113f25760405162461bcd60e51b815260206004820152601c60248201527f506f6f6c3a20696e73756666696369656e74206c69717569646974790000000060448201526064016106c5565b6113ff426201518061513d565b856001600160401b031610156114735760405162461bcd60e51b815260206004820152603360248201527f506f6f6c3a206d61747572697479206d757374206265206174206c6561737420604482015272312064617920696e207468652066757475726560681b60648201526084016106c5565b6114804262263b8061513d565b856001600160401b0316106114f45760405162461bcd60e51b815260206004820152603460248201527f506f6f6c3a206d61747572697479206d757374206265206174206d6f7374203260448201527338206461797320696e207468652066757475726560601b60648201526084016106c5565b611501620151808661530f565b6001600160401b0316156115705760405162461bcd60e51b815260206004820152603060248201527f506f6f6c3a206d61747572697479206d75737420636f72726573706f6e64207460448201526f6f20656e64206f66205554432064617960801b60648201526084016106c5565b600061157a611f56565b600181015460408051630edc4b4d60e11b8152815193945060009384936001600160a01b031692631db8969a926004808201939182900301818787803b1580156115c357600080fd5b505af11580156115d7573d6000803e3d6000fd5b505050506040513d601f19601f820116820180604052508101906115fb9190614d79565b91509150600182600f0b901b600f0b87600f0b13156116825760405162461bcd60e51b815260206004820152603760248201527f506f6f6c3a20737472696b65207072696365206d757374206e6f74206578636560448201527f65642074776f2074696d65732073706f7420707269636500000000000000000060648201526084016106c5565b600182600f0b901d600f0b87600f0b12156117055760405162461bcd60e51b815260206004820152603760248201527f506f6f6c3a20737472696b65207072696365206d757374206265206174206c6560448201527f617374206f6e652068616c662073706f7420707269636500000000000000000060648201526084016106c5565b600080611715838b8b878c610dce565b6002870154919350915061173890600f84900b90600160a01b900460ff166124a2565b6002860154600387015491975060009161179191600160a01b900460ff1690610c329061177490600160401b90600160801b9004600f0b6124c4565b60038a0154610c2990600f89810b91600160801b9004900b6124f8565b9050878711156117e35760405162461bcd60e51b815260206004820152601860248201527f506f6f6c3a2065786365737369766520736c697070616765000000000000000060448201526064016106c5565b60028601546117fb906001600160a01b031688612940565b60408051338152602081018990527f2499a5330ab0979cc612135e7883ebc3cd5c9f7a8508f042540c34723348f632910160405180910390a18554611849906001600160a01b031682612616565b61186a3360808d901b8c018b60405180602001604052806000815250612ab2565b60006118768289615276565b9050600160f81b60808d901b8c010160005b8b15611944576001600160a01b03908116600090815260058a016020526040812054909116908c6118b9858261513d565b6118c284611244565b6118cc9190615257565b6118d69190615155565b9050808d10156118e357508b5b6118ed818e615276565b9c5060008d6118fc8387615257565b6119069190615155565b90506119128186615276565b945061192283610d998385615276565b61193d83858460405180602001604052806000815250612ab2565b5050611888565b600061194f8a612258565b905061197861197187611966600f85900b8b61287b565b84600160401b612594565b8b906125e3565b60038a0154604051600f91820b90910b81526000805160206154898339815191529060200160405180910390a150505050505050505050949350505050565b60006119c1611f56565b600201546001600160a01b0316919050565b336001600160a01b0383161415611a3e5760405162461bcd60e51b815260206004820152602960248201527f455243313135353a2073657474696e6720617070726f76616c20737461747573604482015268103337b91039b2b63360b91b60648201526084016106c5565b3360008181527f1799cf914cb0cb442ca7c7ac709ee40d0cb89e87351dc08d517fbda27d50c68c602090815260408083206001600160a01b03871680855290835292819020805460ff191686151590811790915590519081529192917f17307eab39ab6107e8899845ad3d59bd9653f200f220920489ca2b5937696c31910160405180910390a35050565b6000610805338484600080516020615469833981519152336000908152600191909101602090815260408083206001600160a01b038b16845290915281208054909190610f0d908490615276565b60f882901c608083901c836000836001811115611b4457634e487b7160e01b600052602160045260246000fd5b14611b8c5760405162461bcd60e51b8152602060048201526018602482015277506f6f6c3a20696e76616c696420746f6b656e207479706560401b60448201526064016106c5565b6000611b96611f56565b60018101549091506000906001600160a01b031663dc4877b1426001600160401b03871610611bc55742611bd0565b856001600160401b03165b6040518263ffffffff1660e01b8152600401611bee91815260200190565b602060405180830381600087803b158015611c0857600080fd5b505af1158015611c1c573d6000803e3d6000fd5b505050506040513d601f19601f82011682018060405250810190611c409190614d5d565b9050611c4d338888612bb8565b600086600f85810b9084900b1315611cdf57611c7e88611c7585610c29600f82900b8a61287b565b600f0b90612d53565b6002850154909250611c99906001600160a01b031683612385565b60408051338152602081018490527f5a20425ee28c08dfaf53c051ce9fb1fdfedad2949379924d3313a74c2c61a2a5910160405180910390a1611cdc8282615276565b90505b6000611cea85612258565b600160f81b608089901b88010160008181526000805160206154c983398151915260205260409020919250905b8a15611da5576000611d3e6001611d2d846120be565b611d379190615276565b8390612934565b90506000611d4c828561065d565b905080861015611d595750845b60008d611d668982615276565b611d709084615257565b611d7a9190615155565b9050611d868188615276565b9650611d928382612616565b611d9d838684612bb8565b505050611d17565b6000611db088612258565b9050611dbd888583612456565b6003880154604051600f91820b90910b81526000805160206154898339815191529060200160405180910390a150505050505050505050505050565b60006108053384846120c8565b6000611e10611f56565b33600090815260048201602052604090204290556002810154909150611e3f906001600160a01b031683612940565b60408051338152602081018490527fe1fffcc4923d04b559f4d29a8bfc6cda04eb5b0d3c460751c2402c5c5cc9109c910160405180910390a16000611e8382612258565b9050611e8f3384612616565b6000611e9a83612258565b90506109b1838383612456565b6000611eb1611f56565b600101546001600160a01b0316919050565b6001600160a01b0391821660009081527f1799cf914cb0cb442ca7c7ac709ee40d0cb89e87351dc08d517fbda27d50c68c6020908152604080832093909416825291909152205460ff1690565b6001600160a01b038516331480611f2c5750611f2c8533611ec3565b611f485760405162461bcd60e51b81526004016106c59061508c565b610a2a338686868686612dbb565b7f7d3a375659e5dfb99fee23ac09fe538c9b52c55fec8a9063adb0489a17e982dd90565b6001600160a01b038316611fdc5760405162461bcd60e51b8152602060048201526024808201527f45524332303a20617070726f76652066726f6d20746865207a65726f206164646044820152637265737360e01b60648201526084016106c5565b6001600160a01b03821661203d5760405162461bcd60e51b815260206004820152602260248201527f45524332303a20617070726f766520746f20746865207a65726f206164647265604482015261737360f01b60648201526084016106c5565b6001600160a01b0383811660008181527fc991b2e918acaba8e5721668ed0b1982684e5a8692a621bcd2d7ef326bb015b5602090815260408083209487168084529482529182902085905590518481527f8c5be1e5ebec7d5bd14f71427d1e84f3dd0314c0f7b2291e5b200ac8c7c3b92591015b60405180910390a3505050565b6000610700825490565b6001600160a01b03831661212c5760405162461bcd60e51b815260206004820152602560248201527f45524332303a207472616e736665722066726f6d20746865207a65726f206164604482015264647265737360d81b60648201526084016106c5565b6001600160a01b03821661218e5760405162461bcd60e51b815260206004820152602360248201527f45524332303a207472616e7366657220746f20746865207a65726f206164647260448201526265737360e81b60648201526084016106c5565b612199838383612dd7565b6001600160a01b03831660009081526000805160206154698339815191526020819052604082208054919284926121d1908490615276565b90915550506001600160a01b038316600090815260208290526040812080548492906121fe90849061513d565b92505081905550826001600160a01b0316846001600160a01b03167fddf252ad1be2c89b69c2b068fc378daa952ba7f163c4a11628f55a4df523b3ef8460405161224a91815260200190565b60405180910390a350505050565b6000805160206154a983398151915254600282015460009161070091600160a01b900460ff16612865565b6001600160a01b0382166122e35760405162461bcd60e51b815260206004820152602160248201527f45524332303a206275726e2066726f6d20746865207a65726f206164647265736044820152607360f81b60648201526084016106c5565b6122ef82600083612dd7565b6001600160a01b0382166000908152600080516020615469833981519152602081905260408220805491928492612327908490615276565b92505081905550818160020160008282546123429190615276565b90915550506040518281526000906001600160a01b038516907fddf252ad1be2c89b69c2b068fc378daa952ba7f163c4a11628f55a4df523b3ef906020016120b1565b60405163a9059cbb60e01b8152336004820152602481018290526001600160a01b0383169063a9059cbb906044015b602060405180830381600087803b1580156123ce57600080fd5b505af11580156123e2573d6000803e3d6000fd5b505050506040513d601f19601f820116820180604052508101906124069190614d09565b6124525760405162461bcd60e51b815260206004820152601b60248201527f506f6f6c3a204552433230207472616e73666572206661696c6564000000000060448201526064016106c5565b5050565b60038301546124799061247290600f0b8484600160401b612594565b84906125e3565b505050565b61248c868686868686612eea565b61249a86868686868661305e565b505050505050565b60006124bd6124b283600a6151ac565b600f85900b90612d53565b9392505050565b6000600f83810b9083900b0160016001607f1b031981128015906124ef575060016001607f1b038113155b6124bd57600080fd5b6000600f83810b9083900b0260401d60016001607f1b031981128015906124ef575060016001607f1b038113156124bd57600080fd5b600081600f0b6000141561254157600080fd5b600082600f0b604085600f0b901b8161256a57634e487b7160e01b600052601260045260246000fd5b05905060016001607f1b031981128015906124ef575060016001607f1b038113156124bd57600080fd5b60006125da85610ea46125d26125ca86610ea489600f0b8b600f0b136125ba57896125bc565b8a5b610c29600f8c900b8d61287b565b600f0b61323d565b600f0b61325f565b95945050505050565b60039091018054600f9290920b6001600160801b03166fffffffffffffffffffffffffffffffff19909216919091179055565b6001600160a01b03821661266c5760405162461bcd60e51b815260206004820152601f60248201527f45524332303a206d696e7420746f20746865207a65726f20616464726573730060448201526064016106c5565b61267860008383612dd7565b6000805160206154a983398151915280546000805160206154698339815191529183916000906126a990849061513d565b90915550506001600160a01b038316600090815260208290526040812080548492906126d690849061513d565b90915550506040518281526001600160a01b038416906000907fddf252ad1be2c89b69c2b068fc378daa952ba7f163c4a11628f55a4df523b3ef906020016120b1565b6001600160a01b03841661273f5760405162461bcd60e51b81526004016106c5906150d5565b61275d86868661274e876132b4565b612757876132b4565b8661330d565b60008381526000805160206154e9833981519152602081815260408084206001600160a01b038a168552909152822080549192859261279d908490615276565b90915550506000848152602082815260408083206001600160a01b0389168452909152812080548592906127d290849061513d565b909155505060408051858152602081018590526001600160a01b038088169289821692918b16917fc3d58168c5ae7397731d063d5bbf3d657854427343f4c083240f7aacaa2d0f6291015b60405180910390a450505050505050565b60008161283a57600080fd5b6000612846848461350c565b905060016001607f1b036001600160801b03821611156124bd57600080fd5b60006124bd8361287684600a6151ac565b61282e565b6000600f82810b9084900b0360016001607f1b031981128015906124ef575060016001607f1b038113156124bd57600080fd5b600080806128c885610ea489610c29600f8b900b8261287b565b905060006128db6125d283600f0b61323d565b905060006128ec8e8e8e8e8a6136a6565b90506128fc600f83900b8b6124f8565b935061292161291384610c29600160401b8661287b565b610ea4600f84900b876124f8565b9450505050995099975050505050505050565b60006124bd8383613787565b7f00000000000000000000000000000000000000000000000000000000000000006001600160a01b0316826001600160a01b031614156129ff576129843482615276565b90507f00000000000000000000000000000000000000000000000000000000000000006001600160a01b031663d0e30db0346040518263ffffffff1660e01b81526004016000604051808303818588803b1580156129e157600080fd5b505af11580156129f5573d6000803e3d6000fd5b5050505050612a73565b3415612a735760405162461bcd60e51b815260206004820152603760248201527f506f6f6c3a2066756e6374696f6e2069732070617961626c65206f6e6c79206960448201527f66206465706f73697420746f6b656e206973205745544800000000000000000060648201526084016106c5565b8015612452576040516323b872dd60e01b8152336004820152306024820152604481018290526001600160a01b038316906323b872dd906064016123b4565b6001600160a01b038416612b125760405162461bcd60e51b815260206004820152602160248201527f455243313135353a206d696e7420746f20746865207a65726f206164647265736044820152607360f81b60648201526084016106c5565b612b223360008661274e876132b4565b60008381526000805160206154e9833981519152602090815260408083206001600160a01b0388168452918290528220805491928592612b6390849061513d565b909155505060408051858152602081018590526001600160a01b0387169160009133917fc3d58168c5ae7397731d063d5bbf3d657854427343f4c083240f7aacaa2d0f62910160405180910390a45050505050565b6001600160a01b038316612c1a5760405162461bcd60e51b815260206004820152602360248201527f455243313135353a206275726e2066726f6d20746865207a65726f206164647260448201526265737360e81b60648201526084016106c5565b612c4833846000612c2a866132b4565b612c33866132b4565b6040518060200160405280600081525061330d565b60008281526000805160206154e9833981519152602090815260408083206001600160a01b03871684529182905290912054821115612cd75760405162461bcd60e51b815260206004820152602560248201527f455243313135353a206275726e20616d6f756e7420657863656564732062616c604482015264616e63657360d81b60648201526084016106c5565b6001600160a01b03841660009081526020829052604081208054849290612cff908490615276565b909155505060408051848152602081018490526000916001600160a01b0387169133917fc3d58168c5ae7397731d063d5bbf3d657854427343f4c083240f7aacaa2d0f62910160405180910390a450505050565b600081612d6257506000610700565b600083600f0b1215612d7357600080fd5b600f83900b6001600160801b038316810260401c90608084901c026001600160c01b03811115612da257600080fd5b60401b8119811115612db357600080fd5b019392505050565b612dc986868686868661381b565b61249a868686868686612719565b8015612479576000612de7611f56565b90506001600160a01b03841615801590612e08575081612e0685611244565b145b15612e7c576001600160a01b038481166000818152600684016020818152604080842080546005890184528286208054918916808852848820805493909a166001600160a01b03199384168117909a5598875294909352908420805483169096179095559290915280548216905581541690555b6001600160a01b03831615801590612e9a5750612e9883611244565b155b15612ee457612ee4818460008080526006830160209081526040808320546001600160a01b0390811684526005909501909152902080546001600160a01b03191691909216179055565b50505050565b6001600160a01b0384163b1561249a5760405163bc197c8160e01b81526001600160a01b0385169063bc197c8190612f2e9089908990889088908890600401614f09565b602060405180830381600087803b158015612f4857600080fd5b505af1925050508015612f78575060408051601f3d908101601f19168201909252612f7591810190614d41565b60015b61302557612f8461539c565b806308c379a01415612fbe5750612f996153b4565b80612fa45750612fc0565b8060405162461bcd60e51b81526004016106c59190615031565b505b60405162461bcd60e51b815260206004820152603460248201527f455243313135353a207472616e7366657220746f206e6f6e20455243313135356044820152732932b1b2b4bb32b91034b6b83632b6b2b73a32b960611b60648201526084016106c5565b6001600160e01b0319811663bc197c8160e01b146130555760405162461bcd60e51b81526004016106c590615044565b50505050505050565b6001600160a01b0384166130845760405162461bcd60e51b81526004016106c5906150d5565b81518351146130e65760405162461bcd60e51b815260206004820152602860248201527f455243313135353a2069647320616e6420616d6f756e7473206c656e677468206044820152670dad2e6dac2e8c6d60c31b60648201526084016106c5565b6130f486868686868661330d565b6000805160206154e983398151915260005b84518110156131ed57600085828151811061313157634e487b7160e01b600052603260045260246000fd5b60200260200101519050600085838151811061315d57634e487b7160e01b600052603260045260246000fd5b602090810291909101810151600084815286835260408082206001600160a01b038e16835290935291822080549193508392909161319c908490615276565b90915550506000828152602085815260408083206001600160a01b038c168452909152812080548392906131d190849061513d565b92505081905550505080806131e5906152f4565b915050613106565b50846001600160a01b0316866001600160a01b0316886001600160a01b03167f4a39dc06d4c0dbc64b70af90fd698a233a518aa5d07e595d983b8c0526c8f7fb878760405161281d92919061500c565b6000600f82900b60016001607f1b0319141561325857600080fd5b5060000390565b6000600160461b82600f0b1261327457600080fd5b683fffffffffffffffff1982600f0b121561329157506000919050565b610700608083600f0b700171547652b82fe1777d0ffda0d23a7d1202901d6138e5565b604080516001808252818301909252606091600091906020808301908036833701905050905082816000815181106132fc57634e487b7160e01b600052603260045260246000fd5b602090810291909101015292915050565b836001600160a01b0316856001600160a01b03161461249a576001600160a01b0385811660009081527fb31c2c74f86ca3ce94d901f5f5bbe66f7161eec2f7b5aa0b75a86371436424ec6020526040808220928716825281207fb31c2c74f86ca3ce94d901f5f5bbe66f7161eec2f7b5aa0b75a86371436424ea926000805160206154c9833981519152929091905b87518110156134ff5760008782815181106133c757634e487b7160e01b600052603260045260246000fd5b6020026020010151905060008111156134ec5760008983815181106133fc57634e487b7160e01b600052603260045260246000fd5b6020026020010151905060006001600160a01b03168c6001600160a01b0316141561344a576000818152602088905260408120805484929061343f90849061513d565b909155506134809050565b816134558d8361065d565b1415613480576000818152602087905260409020613473908d61439a565b5061347e85826143af565b505b6001600160a01b038b166134b757600081815260208890526040812080548492906134ac908490615276565b909155506134ea9050565b6134c18b8261065d565b6134ea5760008181526020879052604090206134dd908c6143bb565b506134e884826143d0565b505b505b50806134f7816152f4565b91505061339c565b5050505050505050505050565b60008161351857600080fd5b60006001600160c01b0384116135515782604085901b8161354957634e487b7160e01b600052601260045260246000fd5b049050613692565b60c084811c640100000000811061356a576020918201911c5b62010000811061357c576010918201911c5b610100811061358d576008918201911c5b6010811061359d576004918201911c5b600481106135ad576002918201911c5b600281106135bc576001820191505b60bf820360018603901c6001018260ff0387901b816135eb57634e487b7160e01b600052601260045260246000fd5b0492506001600160801b0383111561360257600080fd5b608085901c83026001600160801b038616840260c088901c604089901b8281101561362e576001820391505b608084901b92900382811015613645576001820391505b829003608084901c821461366957634e487b7160e01b600052600160045260246000fd5b88818161368657634e487b7160e01b600052601260045260246000fd5b04870196505050505050505b6001600160801b038111156124bd57600080fd5b6000806136b7600f85900b886124f8565b905060006136c782600f0b6143dc565b9050600061370482610c29600186600f0b901d6136fb6136f38d8d600f0b61252e90919063ffffffff16565b600f0b6143fe565b600f0b906124c4565b90506000613716600f83900b8461287b565b905085156137585761374d61373861372d83614438565b600f8c900b906124f8565b61374461372d85614438565b600f0b9061287b565b9450505050506125da565b61377e61376f61372d61376a84615335565b614438565b61374461372d61376a86615335565b61374d90615335565b815460009082106137e55760405162461bcd60e51b815260206004820152602260248201527f456e756d657261626c655365743a20696e646578206f7574206f6620626f756e604482015261647360f01b60648201526084016106c5565b82600001828154811061380857634e487b7160e01b600052603260045260246000fd5b9060005260206000200154905092915050565b6001600160a01b0384163b1561249a5760405163f23a6e6160e01b81526001600160a01b0385169063f23a6e619061385f9089908990889088908890600401614f67565b602060405180830381600087803b15801561387957600080fd5b505af19250505080156138a9575060408051601f3d908101601f191682019092526138a691810190614d41565b60015b6138b557612f8461539c565b6001600160e01b0319811663f23a6e6160e01b146130555760405162461bcd60e51b81526004016106c590615044565b6000600160461b82600f0b126138fa57600080fd5b683fffffffffffffffff1982600f0b121561391757506000919050565b6001607f1b60006001603f1b8416600f0b13156139455770016a09e667f3bcc908b2fb1366ea957d3e0260801c5b60008367400000000000000016600f0b1315613972577001306fe0a31b7152de8d5a46305c85edec0260801c5b60008367200000000000000016600f0b131561399f577001172b83c7d517adcdf7c8c50eb14a791f0260801c5b60008367100000000000000016600f0b13156139cc5770010b5586cf9890f6298b92b71842a983630260801c5b60008367080000000000000016600f0b13156139f9577001059b0d31585743ae7c548eb68ca417fd0260801c5b60008367040000000000000016600f0b1315613a2657700102c9a3e778060ee6f7caca4f7a29bde80260801c5b60008367020000000000000016600f0b1315613a535770010163da9fb33356d84a66ae336dcdfa3f0260801c5b60008367010000000000000016600f0b1315613a8057700100b1afa5abcbed6129ab13ec11dc95430260801c5b600083668000000000000016600f0b1315613aac5770010058c86da1c09ea1ff19d294cf2f679b0260801c5b600083664000000000000016600f0b1315613ad8577001002c605e2e8cec506d21bfc89a23a00f0260801c5b600083662000000000000016600f0b1315613b0457700100162f3904051fa128bca9c55c31e5df0260801c5b600083661000000000000016600f0b1315613b30577001000b175effdc76ba38e31671ca9397250260801c5b600083660800000000000016600f0b1315613b5c57700100058ba01fb9f96d6cacd4b180917c3d0260801c5b600083660400000000000016600f0b1315613b885770010002c5cc37da9491d0985c348c68e7b30260801c5b600083660200000000000016600f0b1315613bb4577001000162e525ee054754457d59952920260260801c5b600083660100000000000016600f0b1315613be05770010000b17255775c040618bf4a4ade83fc0260801c5b6000836580000000000016600f0b1315613c0b577001000058b91b5bc9ae2eed81e9b7d4cfab0260801c5b6000836540000000000016600f0b1315613c3657700100002c5c89d5ec6ca4d7c8acc017b7c90260801c5b6000836520000000000016600f0b1315613c615770010000162e43f4f831060e02d839a9d16d0260801c5b6000836510000000000016600f0b1315613c8c57700100000b1721bcfc99d9f890ea069117630260801c5b6000836508000000000016600f0b1315613cb75770010000058b90cf1e6d97f9ca14dbcc16280260801c5b6000836504000000000016600f0b1315613ce2577001000002c5c863b73f016468f6bac5ca2b0260801c5b6000836502000000000016600f0b1315613d0d57700100000162e430e5a18f6119e3c02282a50260801c5b6000836501000000000016600f0b1315613d38577001000000b1721835514b86e6d96efd1bfe0260801c5b60008364800000000016600f0b1315613d6257700100000058b90c0b48c6be5df846c5b2ef0260801c5b60008364400000000016600f0b1315613d8c5770010000002c5c8601cc6b9e94213c72737a0260801c5b60008364200000000016600f0b1315613db6577001000000162e42fff037df38aa2b219f060260801c5b60008364100000000016600f0b1315613de05770010000000b17217fba9c739aa5819f44f90260801c5b60008364080000000016600f0b1315613e0a577001000000058b90bfcdee5acd3c1cedc8230260801c5b60008364040000000016600f0b1315613e3457700100000002c5c85fe31f35a6a30da1be500260801c5b60008364020000000016600f0b1315613e5e5770010000000162e42ff0999ce3541b9fffcf0260801c5b60008364010000000016600f0b1315613e8857700100000000b17217f80f4ef5aadda455540260801c5b600083638000000016600f0b1315613eb15770010000000058b90bfbf8479bd5a81b51ad0260801c5b600083634000000016600f0b1315613eda577001000000002c5c85fdf84bd62ae30a74cc0260801c5b600083632000000016600f0b1315613f0357700100000000162e42fefb2fed257559bdaa0260801c5b600083631000000016600f0b1315613f2c577001000000000b17217f7d5a7716bba4a9ae0260801c5b600083630800000016600f0b1315613f5557700100000000058b90bfbe9ddbac5e109cce0260801c5b600083630400000016600f0b1315613f7e5770010000000002c5c85fdf4b15de6f17eb0d0260801c5b600083630200000016600f0b1315613fa7577001000000000162e42fefa494f1478fde050260801c5b600083630100000016600f0b1315613fd05770010000000000b17217f7d20cf927c8e94c0260801c5b6000836280000016600f0b1315613ff8577001000000000058b90bfbe8f71cb4e4b33d0260801c5b6000836240000016600f0b131561402057700100000000002c5c85fdf477b662b269450260801c5b6000836220000016600f0b13156140485770010000000000162e42fefa3ae53369388c0260801c5b6000836210000016600f0b131561407057700100000000000b17217f7d1d351a389d400260801c5b6000836208000016600f0b13156140985770010000000000058b90bfbe8e8b2d3d4ede0260801c5b6000836204000016600f0b13156140c0577001000000000002c5c85fdf4741bea6e77e0260801c5b6000836202000016600f0b13156140e857700100000000000162e42fefa39fe95583c20260801c5b6000836201000016600f0b1315614110577001000000000000b17217f7d1cfb72b45e10260801c5b60008361800016600f0b131561413757700100000000000058b90bfbe8e7cc35c3f00260801c5b60008361400016600f0b131561415e5770010000000000002c5c85fdf473e242ea380260801c5b60008361200016600f0b1315614185577001000000000000162e42fefa39f02b772c0260801c5b60008361100016600f0b13156141ac5770010000000000000b17217f7d1cf7d83c1a0260801c5b60008361080016600f0b13156141d3577001000000000000058b90bfbe8e7bdcbe2e0260801c5b60008361040016600f0b13156141fa57700100000000000002c5c85fdf473dea871f0260801c5b60008361020016600f0b13156142215770010000000000000162e42fefa39ef44d910260801c5b60008361010016600f0b131561424857700100000000000000b17217f7d1cf79e9490260801c5b600083608016600f0b131561426e5770010000000000000058b90bfbe8e7bce5440260801c5b600083604016600f0b1315614294577001000000000000002c5c85fdf473de6eca0260801c5b600083602016600f0b13156142ba57700100000000000000162e42fefa39ef366f0260801c5b600083601016600f0b13156142e0577001000000000000000b17217f7d1cf79afa0260801c5b600083600816600f0b131561430657700100000000000000058b90bfbe8e7bcd6d0260801c5b600083600416600f0b131561432c5770010000000000000002c5c85fdf473de6b20260801c5b600083600216600f0b1315614352577001000000000000000162e42fefa39ef3580260801c5b600083600116600f0b13156143785770010000000000000000b17217f7d1cf79ab0260801c5b600f83810b60401d603f03900b1c60016001607f1b0381111561070057600080fd5b60006124bd836001600160a01b0384166144fc565b60006124bd83836144fc565b60006124bd836001600160a01b038416614611565b60006124bd8383614611565b60008082600f0b12156143ee57600080fd5b610700604083600f0b901b614660565b60008082600f0b1361440f57600080fd5b608061441a8361483b565b600f0b6fb17217f7d1cf79abc9e3b39803f2f6af02901c9050919050565b600080614449600f84900b846124f8565b905060006144d36144b8614487614478614470600f87900b680300000000000000006124c4565b600f0b6143dc565b67d3c84b78b749bd6b906124f8565b6136fb6144a961449989600f0b614916565b68019abac0ea1da65036906124f8565b679109f285df452394906124c4565b610c2960016144c686615335565b600f0b901d600f0b61325f565b9050600084600f0b136144e657806144f4565b6144f4600160401b8261287b565b949350505050565b60008181526001830160205260408120548015614607576000614520600183615276565b8554909150600090869061453690600190615276565b8154811061455457634e487b7160e01b600052603260045260246000fd5b906000526020600020015490508086600001838154811061458557634e487b7160e01b600052603260045260246000fd5b60009182526020909120015561459c82600161513d565b600082815260018801602052604090205585548690806145cc57634e487b7160e01b600052603160045260246000fd5b600190038181906000526020600020016000905590558560010160008681526020019081526020016000206000905560019350505050610700565b6000915050610700565b600081815260018301602052604081205461465857508154600181810184556000848152602080822090930184905584548482528286019093526040902091909155610700565b506000610700565b60008161466f57506000919050565b816001600160801b82106146885760809190911c9060401b5b600160401b821061469e5760409190911c9060201b5b64010000000082106146b55760209190911c9060101b5b6201000082106146ca5760109190911c9060081b5b61010082106146de5760089190911c9060041b5b601082106146f15760049190911c9060021b5b600882106146fd5760011b5b600181858161471c57634e487b7160e01b600052601260045260246000fd5b048201901c9050600181858161474257634e487b7160e01b600052601260045260246000fd5b048201901c9050600181858161476857634e487b7160e01b600052601260045260246000fd5b048201901c9050600181858161478e57634e487b7160e01b600052601260045260246000fd5b048201901c905060018185816147b457634e487b7160e01b600052601260045260246000fd5b048201901c905060018185816147da57634e487b7160e01b600052601260045260246000fd5b048201901c9050600181858161480057634e487b7160e01b600052601260045260246000fd5b048201901c9050600081858161482657634e487b7160e01b600052601260045260246000fd5b04905080821061123c57806125da565b919050565b60008082600f0b1361484c57600080fd5b6000600f83900b600160401b8112614866576040918201911d5b640100000000811261487a576020918201911d5b62010000811261488c576010918201911d5b610100811261489d576008918201911d5b601081126148ad576004918201911d5b600481126148bd576002918201911d5b600281126148cc576001820191505b603f19820160401b600f85900b607f8490031b6001603f1b5b600081131561490b5790800260ff81901c8281029390930192607f011c9060011d6148e5565b509095945050505050565b6000600f82900b60016001607f1b0319141561493157600080fd5b600082600f0b126132585781610700565b80356001600160a01b038116811461483657600080fd5b600082601f830112614969578081fd5b813560206149768261511a565b60405161498382826152c8565b8381528281019150858301600585901b870184018810156149a2578586fd5b855b858110156149c0578135845292840192908401906001016149a4565b5090979650505050505050565b600082601f8301126149dd578081fd5b81356001600160401b038111156149f6576149f6615386565b604051614a0d601f8301601f1916602001826152c8565b818152846020838601011115614a21578283fd5b816020850160208301379081016020019190915292915050565b80356001600160401b038116811461483657600080fd5b600060208284031215614a63578081fd5b6124bd82614942565b60008060408385031215614a7e578081fd5b614a8783614942565b9150614a9560208401614942565b90509250929050565b600080600080600060a08688031215614ab5578081fd5b614abe86614942565b9450614acc60208701614942565b935060408601356001600160401b0380821115614ae7578283fd5b614af389838a01614959565b94506060880135915080821115614b08578283fd5b614b1489838a01614959565b93506080880135915080821115614b29578283fd5b50614b36888289016149cd565b9150509295509295909350565b600080600060608486031215614b57578283fd5b614b6084614942565b9250614b6e60208501614942565b9150604084013590509250925092565b600080600080600060a08688031215614b95578081fd5b614b9e86614942565b9450614bac60208701614942565b9350604086013592506060860135915060808601356001600160401b03811115614bd4578182fd5b614b36888289016149cd565b60008060408385031215614bf2578182fd5b614bfb83614942565b91506020830135614c0b81615432565b809150509250929050565b60008060408385031215614c28578182fd5b614c3183614942565b946020939093013593505050565b60008060408385031215614c51578182fd5b82356001600160401b0380821115614c67578384fd5b818501915085601f830112614c7a578384fd5b81356020614c878261511a565b604051614c9482826152c8565b8381528281019150858301600585901b870184018b1015614cb3578889fd5b8896505b84871015614cdc57614cc881614942565b835260019690960195918301918301614cb7565b5096505086013592505080821115614cf2578283fd5b50614cff85828601614959565b9150509250929050565b600060208284031215614d1a578081fd5b81516124bd81615432565b600060208284031215614d36578081fd5b81356124bd81615443565b600060208284031215614d52578081fd5b81516124bd81615443565b600060208284031215614d6e578081fd5b81516124bd81615459565b60008060408385031215614d8b578182fd5b8251614d9681615459565b6020840151909250614c0b81615459565b600080600080600060a08688031215614dbe578283fd5b8535614dc981615459565b9450614dd760208701614a3b565b93506040860135614de781615459565b92506060860135614df781615459565b949793965091946080013592915050565b600060208284031215614e19578081fd5b5035919050565b60008060408385031215614e32578182fd5b50508035926020909101359150565b60008060008060808587031215614e56578182fd5b614e5f85614a3b565b93506020850135614e6f81615459565b93969395505050506040820135916060013590565b6000815180845260208085019450808401835b83811015614eb357815187529582019590820190600101614e97565b509495945050505050565b60008151808452815b81811015614ee357602081850181015186830182015201614ec7565b81811115614ef45782602083870101525b50601f01601f19169290920160200192915050565b6001600160a01b0386811682528516602082015260a060408201819052600090614f3590830186614e84565b8281036060840152614f478186614e84565b90508281036080840152614f5b8185614ebe565b98975050505050505050565b6001600160a01b03868116825285166020820152604081018490526060810183905260a060808201819052600090614fa190830184614ebe565b979650505050505050565b6020808252825182820181905260009190848201906040850190845b81811015614fed5783516001600160a01b031683529284019291840191600101614fc8565b50909695505050505050565b6020815260006124bd6020830184614e84565b60408152600061501f6040830185614e84565b82810360208401526125da8185614e84565b6020815260006124bd6020830184614ebe565b60208082526028908201527f455243313135353a204552433131353552656365697665722072656a656374656040820152676420746f6b656e7360c01b606082015260800190565b60208082526029908201527f455243313135353a2063616c6c6572206973206e6f74206f776e6572206e6f7260408201526808185c1c1c9bdd995960ba1b606082015260800190565b60208082526025908201527f455243313135353a207472616e7366657220746f20746865207a65726f206164604082015264647265737360d81b606082015260800190565b60006001600160401b0382111561513357615133615386565b5060051b60200190565b600082198211156151505761515061535a565b500190565b60008261516457615164615370565b500490565b600181815b808511156151a457816000190482111561518a5761518a61535a565b8085161561519757918102915b93841c939080029061516e565b509250929050565b60006124bd60ff8416836000826151c557506001610700565b816151d257506000610700565b81600181146151e857600281146151f25761520e565b6001915050610700565b60ff8411156152035761520361535a565b50506001821b610700565b5060208310610133831016604e8410600b8410161715615231575081810a610700565b61523b8383615169565b806000190482111561524f5761524f61535a565b029392505050565b60008160001904831182151516156152715761527161535a565b500290565b6000828210156152885761528861535a565b500390565b600181811c908216806152a157607f821691505b602082108114156152c257634e487b7160e01b600052602260045260246000fd5b50919050565b601f8201601f191681016001600160401b03811182821017156152ed576152ed615386565b6040525050565b60006000198214156153085761530861535a565b5060010190565b60006001600160401b038084168061532957615329615370565b92169190910692915050565b600081600f0b60016001607f1b03198114156153535761535361535a565b9003919050565b634e487b7160e01b600052601160045260246000fd5b634e487b7160e01b600052601260045260246000fd5b634e487b7160e01b600052604160045260246000fd5b600060033d11156153b157600481823e5160e01c5b90565b600060443d10156153c25790565b6040516003193d81016004833e81513d6001600160401b0381602484011181841117156153f157505050505090565b82850191508151818111156154095750505050505090565b843d87010160208285010111156154235750505050505090565b61490b602082860101876152c8565b801515811461544057600080fd5b50565b6001600160e01b03198116811461544057600080fd5b80600f0b811461544057600080fdfec991b2e918acaba8e5721668ed0b1982684e5a8692a621bcd2d7ef326bb015b4ac2272cabe460d89b90616b7bfcd871124b690389b41e22a9fa4ff88058bc3a7c991b2e918acaba8e5721668ed0b1982684e5a8692a621bcd2d7ef326bb015b6b31c2c74f86ca3ce94d901f5f5bbe66f7161eec2f7b5aa0b75a86371436424eb1799cf914cb0cb442ca7c7ac709ee40d0cb89e87351dc08d517fbda27d50c68ba264697066735822122062879f06e84526ed2faa64cb51e3e29da19ff290bf404347243dec89119a843a64736f6c63430008040033",
  "linkReferences": {},
  "deployedLinkReferences": {}
}