{
  "_format": "hh-sol-artifact-1",
  "contractName": "Median",
  "sourceName": "contracts/core/Median.sol",
  "abi": [
    {
      "inputs": [
        {
          "internalType": "address",
          "name": "pairImplementation",
          "type": "address"
        },
        {
          "internalType": "address",
          "name": "poolImplementation",
          "type": "address"
        }
      ],
      "stateMutability": "nonpayable",
      "type": "constructor"
    },
    {
      "anonymous": false,
      "inputs": [
        {
          "components": [
            {
              "internalType": "address",
              "name": "target",
              "type": "address"
            },
            {
              "internalType": "enum IDiamondCuttable.FacetCutAction",
              "name": "action",
              "type": "uint8"
            },
            {
              "internalType": "bytes4[]",
              "name": "selectors",
              "type": "bytes4[]"
            }
          ],
          "indexed": false,
          "internalType": "struct IDiamondCuttable.FacetCut[]",
          "name": "facetCuts",
          "type": "tuple[]"
        },
        {
          "indexed": false,
          "internalType": "address",
          "name": "target",
          "type": "address"
        },
        {
          "indexed": false,
          "internalType": "bytes",
          "name": "data",
          "type": "bytes"
        }
      ],
      "name": "DiamondCut",
      "type": "event"
    },
    {
      "anonymous": false,
      "inputs": [
        {
          "indexed": true,
          "internalType": "address",
          "name": "previousOwner",
          "type": "address"
        },
        {
          "indexed": true,
          "internalType": "address",
          "name": "newOwner",
          "type": "address"
        }
      ],
      "name": "OwnershipTransferred",
      "type": "event"
    },
    {
      "stateMutability": "payable",
      "type": "fallback"
    },
    {
      "inputs": [],
      "name": "acceptOwnership",
      "outputs": [],
      "stateMutability": "nonpayable",
      "type": "function"
    },
    {
      "inputs": [
        {
          "components": [
            {
              "internalType": "address",
              "name": "target",
              "type": "address"
            },
            {
              "internalType": "enum IDiamondCuttable.FacetCutAction",
              "name": "action",
              "type": "uint8"
            },
            {
              "internalType": "bytes4[]",
              "name": "selectors",
              "type": "bytes4[]"
            }
          ],
          "internalType": "struct IDiamondCuttable.FacetCut[]",
          "name": "facetCuts",
          "type": "tuple[]"
        },
        {
          "internalType": "address",
          "name": "target",
          "type": "address"
        },
        {
          "internalType": "bytes",
          "name": "data",
          "type": "bytes"
        }
      ],
      "name": "diamondCut",
      "outputs": [],
      "stateMutability": "nonpayable",
      "type": "function"
    },
    {
      "inputs": [
        {
          "internalType": "bytes4",
          "name": "selector",
          "type": "bytes4"
        }
      ],
      "name": "facetAddress",
      "outputs": [
        {
          "internalType": "address",
          "name": "facet",
          "type": "address"
        }
      ],
      "stateMutability": "view",
      "type": "function"
    },
    {
      "inputs": [],
      "name": "facetAddresses",
      "outputs": [
        {
          "internalType": "address[]",
          "name": "addresses",
          "type": "address[]"
        }
      ],
      "stateMutability": "view",
      "type": "function"
    },
    {
      "inputs": [
        {
          "internalType": "address",
          "name": "facet",
          "type": "address"
        }
      ],
      "name": "facetFunctionSelectors",
      "outputs": [
        {
          "internalType": "bytes4[]",
          "name": "selectors",
          "type": "bytes4[]"
        }
      ],
      "stateMutability": "view",
      "type": "function"
    },
    {
      "inputs": [],
      "name": "facets",
      "outputs": [
        {
          "components": [
            {
              "internalType": "address",
              "name": "target",
              "type": "address"
            },
            {
              "internalType": "bytes4[]",
              "name": "selectors",
              "type": "bytes4[]"
            }
          ],
          "internalType": "struct IDiamondLoupe.Facet[]",
          "name": "diamondFacets",
          "type": "tuple[]"
        }
      ],
      "stateMutability": "view",
      "type": "function"
    },
    {
      "inputs": [],
      "name": "getFallbackAddress",
      "outputs": [
        {
          "internalType": "address",
          "name": "",
          "type": "address"
        }
      ],
      "stateMutability": "view",
      "type": "function"
    },
    {
      "inputs": [],
      "name": "nomineeOwner",
      "outputs": [
        {
          "internalType": "address",
          "name": "",
          "type": "address"
        }
      ],
      "stateMutability": "view",
      "type": "function"
    },
    {
      "inputs": [],
      "name": "owner",
      "outputs": [
        {
          "internalType": "address",
          "name": "",
          "type": "address"
        }
      ],
      "stateMutability": "view",
      "type": "function"
    },
    {
      "inputs": [
        {
          "internalType": "address",
          "name": "fallbackAddress",
          "type": "address"
        }
      ],
      "name": "setFallbackAddress",
      "outputs": [],
      "stateMutability": "nonpayable",
      "type": "function"
    },
    {
      "inputs": [
        {
          "internalType": "bytes4",
          "name": "interfaceId",
          "type": "bytes4"
        }
      ],
      "name": "supportsInterface",
      "outputs": [
        {
          "internalType": "bool",
          "name": "",
          "type": "bool"
        }
      ],
      "stateMutability": "view",
      "type": "function"
    },
    {
      "inputs": [
        {
          "internalType": "address",
          "name": "account",
          "type": "address"
        }
      ],
      "name": "transferOwnership",
      "outputs": [],
      "stateMutability": "nonpayable",
      "type": "function"
    },
    {
      "stateMutability": "payable",
      "type": "receive"
    }
  ],
  "bytecode": "0x60806040523480156200001157600080fd5b50604051620033eb380380620033eb8339810160408190526200003491620011fc565b60006200004b620005c460201b62000e521760201c565b60408051600c8082526101a08201909252919250600091906020820161018080368337019050509050631f931c1c60e01b816000815181106200009e57634e487b7160e01b600052603260045260246000fd5b6001600160e01b0319909216602092830291909101820152620000d89083906307e4c70760e21b9060019062000e76620005e8821b17901c565b637a0ed62760e01b816001815181106200010257634e487b7160e01b600052603260045260246000fd5b6001600160e01b03199092166020928302919091019091015280516356fe50af60e11b90829060029081106200014857634e487b7160e01b600052603260045260246000fd5b6001600160e01b03199092166020928302919091019091015280516314bbdacb60e21b90829060039081106200018e57634e487b7160e01b600052603260045260246000fd5b6001600160e01b03199092166020928302919091019091015280516366ffd66360e11b9082906004908110620001d457634e487b7160e01b600052603260045260246000fd5b6001600160e01b03199092166020928302919091018201526200020e9083906348e2b09360e01b9060019062000e76620005e8821b17901c565b6301ffc9a760e01b816005815181106200023857634e487b7160e01b600052603260045260246000fd5b6001600160e01b0319909216602092830291909101820152620002729083906301ffc9a760e01b9060019062000e76620005e8821b17901c565b638da5cb5b60e01b816006815181106200029c57634e487b7160e01b600052603260045260246000fd5b6001600160e01b031990921660209283029190910190910152805163455a8a8560e11b9082906007908110620002e257634e487b7160e01b600052603260045260246000fd5b6001600160e01b031990921660209283029190910190910152805163f2fde38b60e01b90829060089081106200032857634e487b7160e01b600052603260045260246000fd5b6001600160e01b03199092166020928302919091019091015280516379ba509760e01b90829060099081106200036e57634e487b7160e01b600052603260045260246000fd5b6001600160e01b0319909216602092830291909101820152620003a89083906307f5828d60e41b9060019062000e76620005e8821b17901c565b632c40805960e01b81600a81518110620003d257634e487b7160e01b600052603260045260246000fd5b6001600160e01b0319909216602092830291909101909101528051639142376560e01b908290600b9081106200041857634e487b7160e01b600052603260045260246000fd5b6001600160e01b03199290921660209283029190910190910152604080516001808252818301909252600091816020015b604080516060808201835260008083526020830152918101919091528152602001906001900390816200044957905050604080516060810190915230815290915060208101600081526020018381525081600081518110620004bb57634e487b7160e01b600052603260045260246000fd5b60200260200101819052506200050881600060405180602001604052806000815250620004f26200067660201b62000efe1760201c565b6200069a60201b62000f2217909392919060201c565b620005363362000522620008ed60201b6200112e1760201c565b6200091160201b620011521790919060201c565b505050336200054f620008ed60201b6200112e1760201c565b60000160006101000a8154816001600160a01b0302191690836001600160a01b0316021790555060006200058d6200092e60201b6200116f1760201c565b80546001600160a01b039485166001600160a01b0319918216178255600190910180549390941692169190911790915550620013b5565b7f326d0c59a7612f6a9919e2a8ee333c80ba689d8ba2634de89c85cbb04832e70590565b6001600160e01b03198083161415620006485760405162461bcd60e51b815260206004820152601c60248201527f4552433136353a20696e76616c696420696e746572666163652069640000000060448201526064015b60405180910390fd5b6001600160e01b03199190911660009081526020929092526040909120805460ff1916911515919091179055565b7f177481ac65e4292921c69f62d1cc7f57541261e5d61c8175cf4e36a01c9bfc9390565b600184015461ffff811690819060009060071615620006cb5750600381901c60009081526002870160205260409020545b60005b86518110156200085b576000878281518110620006fb57634e487b7160e01b600052603260045260246000fd5b60200260200101519050600081602001519050600082604001515111620007715760405162461bcd60e51b815260206004820152602360248201527f4469616d6f6e64426173653a206e6f2073656c6563746f7273207370656369666044820152621a595960ea1b60648201526084016200063f565b60008160028111156200079457634e487b7160e01b600052602160045260246000fd5b1415620007c457620007b98585848d6200095260201b6200119317909392919060201c565b909550935062000850565b6002816002811115620007e757634e487b7160e01b600052602160045260246000fd5b14156200080c57620007b98585848d62000b3060201b6200135417909392919060201c565b60018160028111156200082f57634e487b7160e01b600052602160045260246000fd5b1415620008505762000850828b62000e0460201b620015f41790919060201c565b5050600101620006ce565b50828214620008785760018701805461ffff191661ffff84161790555b60078216156200089b57600382901c600090815260028801602052604090208190555b7f8faa70878671ccd212d20771b795c50af8fd3ff6cf27f4bde57e5d4de0aeb673868686604051620008d0939291906200127f565b60405180910390a1620008e485856200104a565b50505050505050565b7f8a22373512790c48b83a1fe2efdd2888d4a917bcdc24d0adf63e60f67168046090565b81546001600160a01b0319166001600160a01b0391909116179055565b7ff2972c1ee258894e1d7b7bdbd134486d72cb5fc8c830e56616e3732c24caf3f790565b805160009081906001600160a01b03163014806200098e57506200098e83600001516001600160a01b0316620011d960201b620017f31760201c565b620009e85760405162461bcd60e51b815260206004820152602360248201527f4469616d6f6e64426173653a204144442074617267657420686173206e6f20636044820152626f646560e81b60648201526084016200063f565b60005b83604001515181101562000b235760008460400151828151811062000a2057634e487b7160e01b600052603260045260246000fd5b6020908102919091018101516001600160e01b031981166000908152918a9052604090912054909150606081901c1562000aa95760405162461bcd60e51b815260206004820152602360248201527f4469616d6f6e64426173653a2073656c6563746f7220616c726561647920616460448201526219195960ea1b60648201526084016200063f565b85516001600160e01b0319838116600081815260208d90526040902060609390931b6001600160601b0319168b1790925560058a901b60e090811692831c91831c1999909916179781141562000b1357600389901c600090815260028b0160205260408120989098555b50505060019586019501620009eb565b5093959294509192505050565b805160009081906001600160a01b03161562000ba75760405162461bcd60e51b815260206004820152602f60248201527f4469616d6f6e64426173653a2052454d4f564520746172676574206d7573742060448201526e6265207a65726f206164647265737360881b60648201526084016200063f565b600385901c6007861660005b85604001515181101562000df05760008660400151828151811062000be857634e487b7160e01b600052603260045260246000fd5b6020908102919091018101516001600160e01b031981166000908152918c9052604090912054909150606081901c62000c645760405162461bcd60e51b815260206004820152601f60248201527f4469616d6f6e64426173653a2073656c6563746f72206e6f7420666f756e640060448201526064016200063f565b606081901c30141562000cb45760405162461bcd60e51b81526020600482015260226024820152600080516020620033cb8339815191526044820152616c6560f01b60648201526084016200063f565b8862000cde57600019909401600081815260028c0160205260409020549850936007935062000ce6565b600019909301925b600584901b89901b6000806001600160e01b03198084169086161462000d39576001600160e01b03198316600090815260208f90526040902080546001600160601b0319166001600160601b0386161790555b50506001600160e01b03198316600090815260208d90526040812055611fff600383901c1660e0600584901b1687821462000d9e57600082815260028f016020526040902080546001600160e01b031980841c19909116908516831c17905562000dc2565b80836001600160e01b031916901c816001600160e01b031960001b901c198d16179b505b8662000dde57600088815260028f01602052604081208190559b505b50506001909301925062000bb3915050565b5060039190911b1796939550929350505050565b62000e2781600001516001600160a01b0316620011d960201b620017f31760201c565b62000e855760405162461bcd60e51b815260206004820152602760248201527f4469616d6f6e64426173653a205245504c4143452074617267657420686173206044820152666e6f20636f646560c81b60648201526084016200063f565b60005b816040015151811015620010455760008260400151828151811062000ebd57634e487b7160e01b600052603260045260246000fd5b6020908102919091018101516001600160e01b03198116600090815291869052604090912054909150606081901c8062000f3a5760405162461bcd60e51b815260206004820152601f60248201527f4469616d6f6e64426173653a2073656c6563746f72206e6f7420666f756e640060448201526064016200063f565b6001600160a01b03811630141562000f8f5760405162461bcd60e51b81526020600482015260226024820152600080516020620033cb8339815191526044820152616c6560f01b60648201526084016200063f565b84516001600160a01b038281169116141562000fff5760405162461bcd60e51b815260206004820152602860248201527f4469616d6f6e64426173653a205245504c41434520746172676574206973206960448201526719195b9d1a58d85b60c21b60648201526084016200063f565b5083516001600160e01b031992909216600090815260208690526040902060609290921b6001600160601b0319166001600160601b039190911617905560010162000e88565b505050565b8051156001600160a01b0383161514620010be5760405162461bcd60e51b815260206004820152602e60248201527f4469616d6f6e64426173653a20696e76616c696420696e697469616c697a617460448201526d696f6e20706172616d657465727360901b60648201526084016200063f565b6001600160a01b03821615620011d5576001600160a01b03821630146200116357620010fe826001600160a01b0316620011d960201b620017f31760201c565b620011635760405162461bcd60e51b815260206004820152602e60248201527f4469616d6f6e64426173653a20696e697469616c697a6174696f6e207461726760448201526d657420686173206e6f20636f646560901b60648201526084016200063f565b6000826001600160a01b0316826040516200117f919062001261565b600060405180830381855af49150503d8060008114620011bc576040519150601f19603f3d011682016040523d82523d6000602084013e620011c1565b606091505b505090508062001045573d6000803e3d6000fd5b5050565b3b151590565b80516001600160a01b0381168114620011f757600080fd5b919050565b600080604083850312156200120f578182fd5b6200121a83620011df565b91506200122a60208401620011df565b90509250929050565b600081518084526200124d81602086016020860162001382565b601f01601f19169290920160200192915050565b600082516200127581846020870162001382565b9190910192915050565b60006060808301818452808751808352608092508286019150828160051b8701016020808b01875b848110156200135057898403607f19018652815180516001600160a01b03168552838101518986019060038110620012ed57634e487b7160e01b8c52602160045260248cfd5b868601526040918201519186018a9052815190819052908401908a90898701905b808310156200133a5783516001600160e01b03191682529286019260019290920191908601906200130e565b50978501979550505090820190600101620012a7565b50506001600160a01b038a1690880152868103604088015262001374818962001233565b9a9950505050505050505050565b60005b838110156200139f57818101518382015260200162001385565b83811115620013af576000848401525b50505050565b61200680620013c56000396000f3fe6080604052600436106100ab5760003560e01c80638ab5150a116100645780638ab5150a146101bf5780638da5cb5b146101d457806391423765146101e9578063adfca15e14610209578063cdffacc614610236578063f2fde38b14610256576100b2565b806301ffc9a7146100e25780631f931c1c146101175780632c4080591461013957806352ef6b2c1461016657806379ba5097146101885780637a0ed6271461019d576100b2565b366100b257005b60006100bc610276565b90503660008037600080366000845af43d6000803e8080156100dd573d6000f35b3d6000fd5b3480156100ee57600080fd5b506101026100fd366004611aaa565b61033e565b60405190151581526020015b60405180910390f35b34801561012357600080fd5b506101376101323660046119fe565b610373565b005b34801561014557600080fd5b5061014e610400565b6040516001600160a01b03909116815260200161010e565b34801561017257600080fd5b5061017b61041c565b60405161010e9190611b50565b34801561019457600080fd5b506101376105f0565b3480156101a957600080fd5b506101b26106d7565b60405161010e9190611c76565b3480156101cb57600080fd5b5061014e610be6565b3480156101e057600080fd5b5061014e610c07565b3480156101f557600080fd5b506101376102043660046119e4565b610c11565b34801561021557600080fd5b506102296102243660046119e4565b610c6e565b60405161010e9190611b9d565b34801561024257600080fd5b5061014e610251366004611aaa565b610ddd565b34801561026257600080fd5b506101376102713660046119e4565b610e0a565b600080356001600160e01b03191681527f177481ac65e4292921c69f62d1cc7f57541261e5d61c8175cf4e36a01c9bfc9360208190526040822054819060601c80610337575060038201546001600160a01b0316806103375760405162461bcd60e51b815260206004820152603260248201527f4469616d6f6e64426173653a206e6f20666163657420666f756e6420666f722060448201527166756e6374696f6e207369676e617475726560701b60648201526084015b60405180910390fd5b9392505050565b600061036d8261034c610e52565b906001600160e01b0319166000908152602091909152604090205460ff1690565b92915050565b61037b61112e565b546001600160a01b031633146103a35760405162461bcd60e51b815260040161032e90611cf2565b6103f96103b08587611de9565b8484848080601f0160208091040260200160405190810160405280939291908181526020018383808284376000920191909152506103f19250610efe915050565b929190610f22565b5050505050565b600061040a610efe565b600301546001600160a01b0316919050565b60606000610428610efe565b600181015490915061ffff1667ffffffffffffffff81111561045a57634e487b7160e01b600052604160045260246000fd5b604051908082528060200260200182016040528015610483578160200160208202803683370190505b50915060008060005b600184015461ffff168210156105e8576000818152600285016020526040812054905b60088110156105d357836104c281611f49565b600188015490955061ffff1685111590506104dc576105d3565b600581901b82901b6001600160e01b0319811660009081526020889052604081205460601c90805b88811015610568578a818151811061052c57634e487b7160e01b600052603260045260246000fd5b60200260200101516001600160a01b0316836001600160a01b031614156105565760019150610568565b8061056081611f49565b915050610504565b508015610577575050506105c1565b818a898151811061059857634e487b7160e01b600052603260045260246000fd5b6001600160a01b0390921660209283029190910190910152876105ba81611f49565b9850505050505b806105cb81611f49565b9150506104af565b505080806105e090611f49565b91505061048c565b505082525090565b600080516020611fb1833981519152546001600160a01b031633146106695760405162461bcd60e51b815260206004820152602960248201527f536166654f776e61626c653a2073656e646572206d757374206265206e6f6d696044820152683732b29037bbb732b960b91b606482015260840161032e565b600061067361112e565b805460405191925033916001600160a01b03909116907f8be0079c531659141344cd1fd0a4f28419497f9722a3daafe3b4186f6b6457e090600090a36106b98133611152565b6106d46000600080516020611fb18339815191525b90611152565b50565b606060006106e3610efe565b600181015490915061ffff1667ffffffffffffffff81111561071557634e487b7160e01b600052604160045260246000fd5b60405190808252806020026020018201604052801561075b57816020015b6040805180820190915260008152606060208201528152602001906001900390816107335790505b50600182015490925060009061ffff1667ffffffffffffffff81111561079157634e487b7160e01b600052604160045260246000fd5b6040519080825280602002602001820160405280156107ba578160200160208202803683370190505b50905060008060005b600185015461ffff16821015610b58576000818152600286016020526040812054905b6008811015610b4357836107f981611f49565b600189015490955061ffff16851115905061081357610b43565b600581901b82901b6001600160e01b0319811660009081526020899052604081205460601c90805b888110156109ad57826001600160a01b03168c828151811061086d57634e487b7160e01b600052603260045260246000fd5b6020026020010151600001516001600160a01b0316141561099b57838c82815181106108a957634e487b7160e01b600052603260045260246000fd5b6020026020010151602001518b83815181106108d557634e487b7160e01b600052603260045260246000fd5b602002602001015160ff16815181106108fe57634e487b7160e01b600052603260045260246000fd5b60200260200101906001600160e01b03191690816001600160e01b0319168152505060ff8a828151811061094257634e487b7160e01b600052603260045260246000fd5b602002602001015160ff161061095757600080fd5b89818151811061097757634e487b7160e01b600052603260045260246000fd5b60200260200101805180919061098c90611f64565b60ff16905250600191506109ad565b806109a581611f49565b91505061083b565b5080156109bc57505050610b31565b818b89815181106109dd57634e487b7160e01b600052603260045260246000fd5b60209081029190910101516001600160a01b03909116905260018a015461ffff1667ffffffffffffffff811115610a2457634e487b7160e01b600052604160045260246000fd5b604051908082528060200260200182016040528015610a4d578160200160208202803683370190505b508b8981518110610a6e57634e487b7160e01b600052603260045260246000fd5b602002602001015160200181905250828b8981518110610a9e57634e487b7160e01b600052603260045260246000fd5b602002602001015160200151600081518110610aca57634e487b7160e01b600052603260045260246000fd5b60200260200101906001600160e01b03191690816001600160e01b031916815250506001898981518110610b0e57634e487b7160e01b600052603260045260246000fd5b60ff9092166020928302919091019091015287610b2a81611f49565b9850505050505b80610b3b81611f49565b9150506107e6565b50508080610b5090611f49565b9150506107c3565b5060005b82811015610bdb576000848281518110610b8657634e487b7160e01b600052603260045260246000fd5b602002602001015160ff1690506000878381518110610bb557634e487b7160e01b600052603260045260246000fd5b602002602001015160200151905081815250508080610bd390611f49565b915050610b5c565b508185525050505090565b6000600080516020611fb18339815191525b546001600160a01b0316919050565b6000610bf861112e565b610c1961112e565b546001600160a01b03163314610c415760405162461bcd60e51b815260040161032e90611cf2565b80610c4a610efe565b60030180546001600160a01b0319166001600160a01b039290921691909117905550565b60606000610c7a610efe565b600181015490915061ffff1667ffffffffffffffff811115610cac57634e487b7160e01b600052604160045260246000fd5b604051908082528060200260200182016040528015610cd5578160200160208202803683370190505b50915060008060005b600184015461ffff16821015610dd3576000818152600285016020526040812054905b6008811015610dbe5783610d1481611f49565b600188015490955061ffff168511159050610d2e57610dbe565b600581901b82901b6001600160e01b0319811660009081526020889052604090205460601c6001600160a01b038a161415610dab5780888781518110610d8457634e487b7160e01b600052603260045260246000fd5b6001600160e01b03199092166020928302919091019091015285610da781611f49565b9650505b5080610db681611f49565b915050610d01565b50508080610dcb90611f49565b915050610cde565b5050825250919050565b6000610de7610efe565b6001600160e01b0319909216600090815260209290925250604090205460601c90565b610e1261112e565b546001600160a01b03163314610e3a5760405162461bcd60e51b815260040161032e90611cf2565b6106d481600080516020611fb18339815191526106ce565b7f326d0c59a7612f6a9919e2a8ee333c80ba689d8ba2634de89c85cbb04832e70590565b6001600160e01b03198083161415610ed05760405162461bcd60e51b815260206004820152601c60248201527f4552433136353a20696e76616c696420696e7465726661636520696400000000604482015260640161032e565b6001600160e01b03199190911660009081526020929092526040909120805460ff1916911515919091179055565b7f177481ac65e4292921c69f62d1cc7f57541261e5d61c8175cf4e36a01c9bfc9390565b600184015461ffff811690819060009060071615610f525750600381901c60009081526002870160205260409020545b60005b86518110156110a2576000878281518110610f8057634e487b7160e01b600052603260045260246000fd5b60200260200101519050600081602001519050600082604001515111610ff45760405162461bcd60e51b815260206004820152602360248201527f4469616d6f6e64426173653a206e6f2073656c6563746f7273207370656369666044820152621a595960ea1b606482015260840161032e565b600081600281111561101657634e487b7160e01b600052602160045260246000fd5b1415611032576110288a868685611193565b9095509350611098565b600281600281111561105457634e487b7160e01b600052602160045260246000fd5b1415611066576110288a868685611354565b600181600281111561108857634e487b7160e01b600052602160045260246000fd5b1415611098576110988a836115f4565b5050600101610f55565b508282146110be5760018701805461ffff191661ffff84161790555b60078216156110e057600382901c600090815260028801602052604090208190555b7f8faa70878671ccd212d20771b795c50af8fd3ff6cf27f4bde57e5d4de0aeb67386868660405161111393929190611bb0565b60405180910390a161112585856117f9565b50505050505050565b7f8a22373512790c48b83a1fe2efdd2888d4a917bcdc24d0adf63e60f67168046090565b81546001600160a01b0319166001600160a01b0391909116179055565b7ff2972c1ee258894e1d7b7bdbd134486d72cb5fc8c830e56616e3732c24caf3f790565b805160009081906001600160a01b03163014806111ba575082516001600160a01b03163b15155b6112125760405162461bcd60e51b815260206004820152602360248201527f4469616d6f6e64426173653a204144442074617267657420686173206e6f20636044820152626f646560e81b606482015260840161032e565b60005b8360400151518110156113475760008460400151828151811061124857634e487b7160e01b600052603260045260246000fd5b6020908102919091018101516001600160e01b031981166000908152918a9052604090912054909150606081901c156112cf5760405162461bcd60e51b815260206004820152602360248201527f4469616d6f6e64426173653a2073656c6563746f7220616c726561647920616460448201526219195960ea1b606482015260840161032e565b85516001600160e01b0319838116600081815260208d90526040902060609390931b6001600160601b0319168b1790925560058a901b60e090811692831c91831c1999909916179781141561133857600389901c600090815260028b0160205260408120989098555b50505060019586019501611215565b5093959294509192505050565b805160009081906001600160a01b0316156113c95760405162461bcd60e51b815260206004820152602f60248201527f4469616d6f6e64426173653a2052454d4f564520746172676574206d7573742060448201526e6265207a65726f206164647265737360881b606482015260840161032e565b600385901c6007861660005b8560400151518110156115e05760008660400151828151811061140857634e487b7160e01b600052603260045260246000fd5b6020908102919091018101516001600160e01b031981166000908152918c9052604090912054909150606081901c6114825760405162461bcd60e51b815260206004820152601f60248201527f4469616d6f6e64426173653a2073656c6563746f72206e6f7420666f756e6400604482015260640161032e565b606081901c3014156114a65760405162461bcd60e51b815260040161032e90611d29565b886114ce57600019909401600081815260028c016020526040902054985093600793506114d6565b600019909301925b600584901b89901b6000806001600160e01b03198084169086161461152d576001600160e01b03198316600090815260208f90526040902080546001600160601b0319166bffffffffffffffffffffffff86161790555b50506001600160e01b03198316600090815260208d90526040812055611fff600383901c1660e0600584901b1687821461159057600082815260028f016020526040902080546001600160e01b031980841c19909116908516831c1790556115b4565b80836001600160e01b031916901c816001600160e01b031960001b901c198d16179b505b866115cf57600088815260028f01602052604081208190559b505b5050600190930192506113d5915050565b5060039190911b1796939550929350505050565b80516001600160a01b03163b61165c5760405162461bcd60e51b815260206004820152602760248201527f4469616d6f6e64426173653a205245504c4143452074617267657420686173206044820152666e6f20636f646560c81b606482015260840161032e565b60005b8160400151518110156117ee5760008260400151828151811061169257634e487b7160e01b600052603260045260246000fd5b6020908102919091018101516001600160e01b03198116600090815291869052604090912054909150606081901c8061170d5760405162461bcd60e51b815260206004820152601f60248201527f4469616d6f6e64426173653a2073656c6563746f72206e6f7420666f756e6400604482015260640161032e565b6001600160a01b0381163014156117365760405162461bcd60e51b815260040161032e90611d29565b84516001600160a01b03828116911614156117a45760405162461bcd60e51b815260206004820152602860248201527f4469616d6f6e64426173653a205245504c41434520746172676574206973206960448201526719195b9d1a58d85b60c21b606482015260840161032e565b5083516001600160e01b031992909216600090815260208690526040902060609290921b6001600160601b0319166bffffffffffffffffffffffff9190911617905560010161165f565b505050565b3b151590565b8051156001600160a01b038316151461186b5760405162461bcd60e51b815260206004820152602e60248201527f4469616d6f6e64426173653a20696e76616c696420696e697469616c697a617460448201526d696f6e20706172616d657465727360901b606482015260840161032e565b6001600160a01b03821615611965576001600160a01b03821630146118f8576001600160a01b0382163b6118f85760405162461bcd60e51b815260206004820152602e60248201527f4469616d6f6e64426173653a20696e697469616c697a6174696f6e207461726760448201526d657420686173206e6f20636f646560901b606482015260840161032e565b6000826001600160a01b0316826040516119129190611b34565b600060405180830381855af49150503d806000811461194d576040519150601f19603f3d011682016040523d82523d6000602084013e611952565b606091505b50509050806117ee573d6000803e3d6000fd5b5050565b80356001600160a01b038116811461198057600080fd5b919050565b80356001600160e01b03198116811461198057600080fd5b60008083601f8401126119ae578182fd5b50813567ffffffffffffffff8111156119c5578182fd5b6020830191508360208285010111156119dd57600080fd5b9250929050565b6000602082840312156119f5578081fd5b61033782611969565b600080600080600060608688031215611a15578081fd5b853567ffffffffffffffff80821115611a2c578283fd5b818801915088601f830112611a3f578283fd5b813581811115611a4d578384fd5b8960208260051b8501011115611a61578384fd5b60208301975080965050611a7760208901611969565b94506040880135915080821115611a8c578283fd5b50611a998882890161199d565b969995985093965092949392505050565b600060208284031215611abb578081fd5b61033782611985565b6000815180845260208085019450808401835b83811015611afd5781516001600160e01b03191687529582019590820190600101611ad7565b509495945050505050565b60008151808452611b20816020860160208601611f19565b601f01601f19169290920160200192915050565b60008251611b46818460208701611f19565b9190910192915050565b6020808252825182820181905260009190848201906040850190845b81811015611b915783516001600160a01b031683529284019291840191600101611b6c565b50909695505050505050565b6020815260006103376020830184611ac4565b6000606080830181845280875180835260808601915060808160051b87010192506020808a01865b83811015611c4757888603607f19018552815180516001600160a01b031687528381015160038110611c1857634e487b7160e01b8a52602160045260248afd5b87850152604090810151908701889052611c3488880182611ac4565b9650509382019390820190600101611bd8565b50506001600160a01b0389169087015250508381036040850152611c6b8186611b08565b979650505050505050565b60006020808301818452808551808352604092508286019150828160051b870101848801865b83811015611ce457888303603f19018552815180516001600160a01b03168452870151878401879052611cd187850182611ac4565b9588019593505090860190600101611c9c565b509098975050505050505050565b6020808252601d908201527f4f776e61626c653a2073656e646572206d757374206265206f776e6572000000604082015260600190565b60208082526022908201527f4469616d6f6e64426173653a2073656c6563746f7220697320696d6d757461626040820152616c6560f01b606082015260800190565b6040516060810167ffffffffffffffff81118282101715611d8e57611d8e611f9a565b60405290565b604051601f8201601f1916810167ffffffffffffffff81118282101715611dbd57611dbd611f9a565b604052919050565b600067ffffffffffffffff821115611ddf57611ddf611f9a565b5060051b60200190565b6000611dfc611df784611dc5565b611d94565b838152602080820191908460053688821b83011115611e19578586fd5b855b88811015611f0c57823567ffffffffffffffff80821115611e3a578889fd5b818a01915060608236031215611e4e578889fd5b611e56611d6b565b611e5f83611969565b81528683013560038110611e71578a8bfd5b8188015260408381013583811115611e87578b8cfd5b939093019236601f850112611e9a578a8bfd5b83359250611eaa611df784611dc5565b83815288810190858a0136868a1b88018c011115611ec6578d8efd5b8d96505b85871015611eef57611edb81611985565b835260019690960195918a01918a01611eca565b509183019190915250885250509483019491830191600101611e1b565b5092979650505050505050565b60005b83811015611f34578181015183820152602001611f1c565b83811115611f43576000848401525b50505050565b6000600019821415611f5d57611f5d611f84565b5060010190565b600060ff821660ff811415611f7b57611f7b611f84565b60010192915050565b634e487b7160e01b600052601160045260246000fd5b634e487b7160e01b600052604160045260246000fdfe24aa1f7b31fd188a8d3ecfb06bc55c806040e59b03bd4396283442fce6617890a26469706673582212203264fc6596a752da6b4846cad343d1a5f4cb5da8acd9d222ac5fb8eec700564964736f6c634300080400334469616d6f6e64426173653a2073656c6563746f7220697320696d6d75746162",
  "linkReferences": {},
  "deployedLinkReferences": {}
}