{
  "_format": "hh-sol-artifact-1",
  "contractName": "ProxyManager",
  "sourceName": "contracts/core/ProxyManager.sol",
  "abi": [
    {
      "anonymous": false,
      "inputs": [
        {
          "indexed": true,
          "internalType": "address",
          "name": "base",
          "type": "address"
        },
        {
          "indexed": true,
          "internalType": "address",
          "name": "underlying",
          "type": "address"
        },
        {
          "indexed": true,
          "internalType": "address",
          "name": "pair",
          "type": "address"
        },
        {
          "indexed": false,
          "internalType": "address",
          "name": "baseOracle",
          "type": "address"
        },
        {
          "indexed": false,
          "internalType": "address",
          "name": "underlyingOracle",
          "type": "address"
        }
      ],
      "name": "DeployPair",
      "type": "event"
    },
    {
      "inputs": [
        {
          "internalType": "address",
          "name": "asset0",
          "type": "address"
        },
        {
          "internalType": "address",
          "name": "asset1",
          "type": "address"
        },
        {
          "internalType": "address",
          "name": "oracle0",
          "type": "address"
        },
        {
          "internalType": "address",
          "name": "oracle1",
          "type": "address"
        }
      ],
      "name": "deployPair",
      "outputs": [
        {
          "internalType": "address",
          "name": "",
          "type": "address"
        }
      ],
      "stateMutability": "nonpayable",
      "type": "function"
    },
    {
      "inputs": [
        {
          "internalType": "address",
          "name": "asset0",
          "type": "address"
        },
        {
          "internalType": "address",
          "name": "asset1",
          "type": "address"
        }
      ],
      "name": "getPair",
      "outputs": [
        {
          "internalType": "address",
          "name": "",
          "type": "address"
        }
      ],
      "stateMutability": "view",
      "type": "function"
    },
    {
      "inputs": [],
      "name": "getPairImplementation",
      "outputs": [
        {
          "internalType": "address",
          "name": "",
          "type": "address"
        }
      ],
      "stateMutability": "view",
      "type": "function"
    },
    {
      "inputs": [],
      "name": "getPoolImplementation",
      "outputs": [
        {
          "internalType": "address",
          "name": "",
          "type": "address"
        }
      ],
      "stateMutability": "view",
      "type": "function"
    }
  ],
  "bytecode": "0x608060405234801561001057600080fd5b506117ce806100206000396000f3fe608060405234801561001057600080fd5b506004361061004c5760003560e01c80634c801da81461005157806369d2293d14610099578063aec525e4146100ac578063e6a43905146100dc575b600080fd5b7ff2972c1ee258894e1d7b7bdbd134486d72cb5fc8c830e56616e3732c24caf3f8546001600160a01b03165b6040516001600160a01b03909116815260200160405180910390f35b61007d6100a736600461038c565b6100ef565b7ff2972c1ee258894e1d7b7bdbd134486d72cb5fc8c830e56616e3732c24caf3f7546001600160a01b031661007d565b61007d6100ea36600461035a565b61024e565b60007f8a22373512790c48b83a1fe2efdd2888d4a917bcdc24d0adf63e60f671680460546001600160a01b0316331461016e5760405162461bcd60e51b815260206004820152601d60248201527f4f776e61626c653a2073656e646572206d757374206265206f776e6572000000604482015260640160405180910390fd5b60008585858560405161018090610331565b6001600160a01b039485168152928416602084015290831660408301529091166060820152608001604051809103906000f0801580156101c4573d6000803e3d6000fd5b509050806101f47ff2972c1ee258894e1d7b7bdbd134486d72cb5fc8c830e56616e3732c24caf3f7888884610282565b604080516001600160a01b03878116825286811660208301528084169289821692918b16917f590f57836a33c418e01c19611e3fdc8cd2b1ae7e86eacdbddfe826ed0ee5f736910160405180910390a49695505050505050565b600061027b7ff2972c1ee258894e1d7b7bdbd134486d72cb5fc8c830e56616e3732c24caf3f784846102e0565b9392505050565b816001600160a01b0316836001600160a01b031611156102a0579091905b6001600160a01b039283166000908152600290940160209081526040808620938516865292905292208054919092166001600160a01b0319909116179055565b6000816001600160a01b0316836001600160a01b03161115610300579091905b506001600160a01b039182166000908152600293909301602090815260408085209284168552919052909120541690565b6113b9806103e083390190565b80356001600160a01b038116811461035557600080fd5b919050565b6000806040838503121561036c578182fd5b6103758361033e565b91506103836020840161033e565b90509250929050565b600080600080608085870312156103a1578182fd5b6103aa8561033e565b93506103b86020860161033e565b92506103c66040860161033e565b91506103d46060860161033e565b90509295919450925056fe60a06040523480156200001157600080fd5b50604051620013b9380380620013b98339810160408190526200003491620003c5565b632bb1497960e21b6080523362000056620001ac602090811b6200016517901c565b60000160006101000a8154816001600160a01b0302191690836001600160a01b03160217905550600033858560405162000090906200039a565b6001600160a01b03938416815291831660208301529091166040820152606001604051809103906000f080158015620000cd573d6000803e3d6000fd5b5090506000338587604051620000e3906200039a565b6001600160a01b03938416815291831660208301529091166040820152606001604051809103906000f08015801562000120573d6000803e3d6000fd5b50905060006200013a620001d060201b620001891760201c565b80546001600160a01b03199081166001600160a01b038a8116919091178355600183018054909216908916179055905062000183818686620001f4602090811b620001ad17901c565b6200019f8383836200036860201b62000314179092919060201c565b505050505050506200044b565b7f8a22373512790c48b83a1fe2efdd2888d4a917bcdc24d0adf63e60f67168046090565b7f150cff147270da078a1761e4f588a3b724d3c23c2d071a2d49c3c90c261540c090565b806001600160a01b031663313ce5676040518163ffffffff1660e01b815260040160206040518083038186803b1580156200022e57600080fd5b505afa15801562000243573d6000803e3d6000fd5b505050506040513d601f19601f8201168201806040525081019062000269919062000421565b60ff16826001600160a01b031663313ce5676040518163ffffffff1660e01b815260040160206040518083038186803b158015620002a657600080fd5b505afa158015620002bb573d6000803e3d6000fd5b505050506040513d601f19601f82011682018060405250810190620002e1919062000421565b60ff1614620003365760405162461bcd60e51b815260206004820181905260248201527f506169723a206f7261636c6520646563696d616c73206d757374206d61746368604482015260640160405180910390fd5b6002830180546001600160a01b03199081166001600160a01b0394851617909155600390930180549093169116179055565b6004830180546001600160a01b03199081166001600160a01b0394851617909155600590930180549093169116179055565b610b2c806200088d83390190565b80516001600160a01b0381168114620003c057600080fd5b919050565b60008060008060808587031215620003db578384fd5b620003e685620003a8565b9350620003f660208601620003a8565b92506200040660408601620003a8565b91506200041660608601620003a8565b905092959194509250565b60006020828403121562000433578081fd5b815160ff8116811462000444578182fd5b9392505050565b6080516001600160e01b03191661041d620004706000396000604f015261041d6000f3fe6080604052600061000e610034565b90503660008037600080366000845af43d6000803e80801561002f573d6000f35b3d6000fd5b6000806000610041610346565b6040516001600160e01b03197f00000000000000000000000000000000000000000000000000000000000000001660208201526001600160a01b03919091169060240160408051601f198184030181529082905261009e916103ae565b600060405180830381855afa9150503d80600081146100d9576040519150601f19603f3d011682016040523d82523d6000602084013e6100de565b606091505b50915091508161014a5760405162461bcd60e51b815260206004820152602c60248201527f4d616e6167656450726f78793a206661696c656420746f20666574636820696d60448201526b383632b6b2b73a30ba34b7b760a11b60648201526084015b60405180910390fd5b8080602001905181019061015e919061035f565b9250505090565b7f8a22373512790c48b83a1fe2efdd2888d4a917bcdc24d0adf63e60f67168046090565b7f150cff147270da078a1761e4f588a3b724d3c23c2d071a2d49c3c90c261540c090565b806001600160a01b031663313ce5676040518163ffffffff1660e01b815260040160206040518083038186803b1580156101e657600080fd5b505afa1580156101fa573d6000803e3d6000fd5b505050506040513d601f19601f8201168201806040525081019061021e919061038d565b60ff16826001600160a01b031663313ce5676040518163ffffffff1660e01b815260040160206040518083038186803b15801561025a57600080fd5b505afa15801561026e573d6000803e3d6000fd5b505050506040513d601f19601f82011682018060405250810190610292919061038d565b60ff16146102e25760405162461bcd60e51b815260206004820181905260248201527f506169723a206f7261636c6520646563696d616c73206d757374206d617463686044820152606401610141565b6002830180546001600160a01b03199081166001600160a01b0394851617909155600390930180549093169116179055565b6004830180546001600160a01b03199081166001600160a01b0394851617909155600590930180549093169116179055565b6000610350610165565b546001600160a01b0316919050565b600060208284031215610370578081fd5b81516001600160a01b0381168114610386578182fd5b9392505050565b60006020828403121561039e578081fd5b815160ff81168114610386578182fd5b60008251815b818110156103ce57602081860181015185830152016103b4565b818111156103dc5782828501525b50919091019291505056fea2646970667358221220a980d5c3939738e42789e58320dc746b801d3cefbf8b177b6ac7273be23a6f3664736f6c6343000804003360a06040523480156200001157600080fd5b5060405162000b2c38038062000b2c833981016040819052620000349162000583565b63099003b560e31b6080528262000056620003a3602090811b6200016517901c565b60000160006101000a8154816001600160a01b0302191690836001600160a01b03160217905550600062000094620003c760201b620001891760201c565b80546001600160a01b038087166001600160a01b0319928316178355600183018054831633179055600283018054868316908416811790915560078401805492881692909316919091179091556040805163313ce56760e01b81529051929350909163313ce56791600480820192602092909190829003018186803b1580156200011d57600080fd5b505afa15801562000132573d6000803e3d6000fd5b505050506040513d601f19601f8201168201806040525081019062000158919062000680565b60028201805460ff92909216600160a01b0260ff60a01b1990921691909117905560030180546001600160801b03191668056fc2a2c515da32ea1790556000620001b0620001ad620003eb602090811b91909117901c565b90506000836001600160a01b03166395d89b416040518163ffffffff1660e01b815260040160006040518083038186803b158015620001ee57600080fd5b505afa15801562000203573d6000803e3d6000fd5b505050506040513d6000823e601f3d908101601f191682016040526200022d9190810190620005cc565b90506000836001600160a01b03166395d89b416040518163ffffffff1660e01b815260040160006040518083038186803b1580156200026b57600080fd5b505afa15801562000280573d6000803e3d6000fd5b505050506040513d6000823e601f3d908101601f19168201604052620002aa9190810190620005cc565b90508082604051602001620002c1929190620006aa565b60408051601f198184030181529190528051620002e6918591602090910190620004c0565b508082604051602001620002fc92919062000708565b60405160208183030381529060405283600101908051906020019062000324929190620004c0565b5050506002018054601260ff1990911617905560006200034f6200040f602090811b620001d117901c565b9050620003756301ffc9a760e01b6001836200043360201b620001f5179092919060201c565b62000399636cdb3d1360e11b6001836200043360201b620001f5179092919060201c565b50505050620007d4565b7f8a22373512790c48b83a1fe2efdd2888d4a917bcdc24d0adf63e60f67168046090565b7f7d3a375659e5dfb99fee23ac09fe538c9b52c55fec8a9063adb0489a17e982dd90565b7f2967a798b92539a1b9eefe4d8eb931f96b68d27665e276f1bee2d5db7f74304790565b7f326d0c59a7612f6a9919e2a8ee333c80ba689d8ba2634de89c85cbb04832e70590565b6001600160e01b03198083161415620004925760405162461bcd60e51b815260206004820152601c60248201527f4552433136353a20696e76616c696420696e7465726661636520696400000000604482015260640160405180910390fd5b6001600160e01b03199190911660009081526020929092526040909120805460ff1916911515919091179055565b828054620004ce9062000781565b90600052602060002090601f016020900481019282620004f257600085556200053d565b82601f106200050d57805160ff19168380011785556200053d565b828001600101855582156200053d579182015b828111156200053d57825182559160200191906001019062000520565b506200054b9291506200054f565b5090565b5b808211156200054b576000815560010162000550565b80516001600160a01b03811681146200057e57600080fd5b919050565b60008060006060848603121562000598578283fd5b620005a38462000566565b9250620005b36020850162000566565b9150620005c36040850162000566565b90509250925092565b600060208284031215620005de578081fd5b81516001600160401b0380821115620005f5578283fd5b818401915084601f83011262000609578283fd5b8151818111156200061e576200061e620007be565b604051601f8201601f19908116603f01168101908382118183101715620006495762000649620007be565b8160405282815287602084870101111562000662578586fd5b620006758360208301602088016200074e565b979650505050505050565b60006020828403121562000692578081fd5b815160ff81168114620006a3578182fd5b9392505050565b71026b2b234b0b7102634b8bab4b234ba3c9d160751b815260008351620006d98160128501602088016200074e565b602f60f81b6012918401918201528351620006fc8160138401602088016200074e565b01601301949350505050565b634d45442d60e01b815260008351620007298160048501602088016200074e565b835190830190620007428160048401602088016200074e565b01600401949350505050565b60005b838110156200076b57818101518382015260200162000751565b838111156200077b576000848401525b50505050565b600181811c908216806200079657607f821691505b60208210811415620007b857634e487b7160e01b600052602260045260246000fd5b50919050565b634e487b7160e01b600052604160045260246000fd5b6080516001600160e01b031916610333620007f96000396000604f01526103336000f3fe6080604052600061000e610034565b90503660008037600080366000845af43d6000803e80801561002f573d6000f35b3d6000fd5b600080600061004161027d565b6040516001600160e01b03197f00000000000000000000000000000000000000000000000000000000000000001660208201526001600160a01b03919091169060240160408051601f198184030181529082905261009e916102c4565b600060405180830381855afa9150503d80600081146100d9576040519150601f19603f3d011682016040523d82523d6000602084013e6100de565b606091505b50915091508161014a5760405162461bcd60e51b815260206004820152602c60248201527f4d616e6167656450726f78793a206661696c656420746f20666574636820696d60448201526b383632b6b2b73a30ba34b7b760a11b60648201526084015b60405180910390fd5b8080602001905181019061015e9190610296565b9250505090565b7f8a22373512790c48b83a1fe2efdd2888d4a917bcdc24d0adf63e60f67168046090565b7f7d3a375659e5dfb99fee23ac09fe538c9b52c55fec8a9063adb0489a17e982dd90565b7f2967a798b92539a1b9eefe4d8eb931f96b68d27665e276f1bee2d5db7f74304790565b7f326d0c59a7612f6a9919e2a8ee333c80ba689d8ba2634de89c85cbb04832e70590565b6001600160e01b0319808316141561024f5760405162461bcd60e51b815260206004820152601c60248201527f4552433136353a20696e76616c696420696e74657266616365206964000000006044820152606401610141565b6001600160e01b03199190911660009081526020929092526040909120805460ff1916911515919091179055565b6000610287610165565b546001600160a01b0316919050565b6000602082840312156102a7578081fd5b81516001600160a01b03811681146102bd578182fd5b9392505050565b60008251815b818110156102e457602081860181015185830152016102ca565b818111156102f25782828501525b50919091019291505056fea26469706673582212202ab7252fb8c7c005e66ef0499127d3fdc4b4ffe508fe3b1dc7793283b473b0bf64736f6c63430008040033a26469706673582212209145166e4ce632f75de27d80c1002311664b18b7de68d702a194eb3a03258de064736f6c63430008040033",
  "linkReferences": {},
  "deployedLinkReferences": {}
}