{
  "_format": "hh-sol-artifact-1",
  "contractName": "PremiaOption",
  "sourceName": "contracts/PremiaOption.sol",
  "abi": [
    {
      "inputs": [
        {
          "internalType": "string",
          "name": "_uri",
          "type": "string"
        },
        {
          "internalType": "contract IERC20",
          "name": "_dai",
          "type": "address"
        }
      ],
      "stateMutability": "nonpayable",
      "type": "constructor"
    },
    {
      "anonymous": false,
      "inputs": [
        {
          "indexed": true,
          "internalType": "address",
          "name": "account",
          "type": "address"
        },
        {
          "indexed": true,
          "internalType": "address",
          "name": "operator",
          "type": "address"
        },
        {
          "indexed": false,
          "internalType": "bool",
          "name": "approved",
          "type": "bool"
        }
      ],
      "name": "ApprovalForAll",
      "type": "event"
    },
    {
      "anonymous": false,
      "inputs": [
        {
          "indexed": true,
          "internalType": "address",
          "name": "previousOwner",
          "type": "address"
        },
        {
          "indexed": true,
          "internalType": "address",
          "name": "newOwner",
          "type": "address"
        }
      ],
      "name": "OwnershipTransferred",
      "type": "event"
    },
    {
      "anonymous": false,
      "inputs": [
        {
          "indexed": true,
          "internalType": "address",
          "name": "operator",
          "type": "address"
        },
        {
          "indexed": true,
          "internalType": "address",
          "name": "from",
          "type": "address"
        },
        {
          "indexed": true,
          "internalType": "address",
          "name": "to",
          "type": "address"
        },
        {
          "indexed": false,
          "internalType": "uint256[]",
          "name": "ids",
          "type": "uint256[]"
        },
        {
          "indexed": false,
          "internalType": "uint256[]",
          "name": "values",
          "type": "uint256[]"
        }
      ],
      "name": "TransferBatch",
      "type": "event"
    },
    {
      "anonymous": false,
      "inputs": [
        {
          "indexed": true,
          "internalType": "address",
          "name": "operator",
          "type": "address"
        },
        {
          "indexed": true,
          "internalType": "address",
          "name": "from",
          "type": "address"
        },
        {
          "indexed": true,
          "internalType": "address",
          "name": "to",
          "type": "address"
        },
        {
          "indexed": false,
          "internalType": "uint256",
          "name": "id",
          "type": "uint256"
        },
        {
          "indexed": false,
          "internalType": "uint256",
          "name": "value",
          "type": "uint256"
        }
      ],
      "name": "TransferSingle",
      "type": "event"
    },
    {
      "anonymous": false,
      "inputs": [
        {
          "indexed": false,
          "internalType": "string",
          "name": "value",
          "type": "string"
        },
        {
          "indexed": true,
          "internalType": "uint256",
          "name": "id",
          "type": "uint256"
        }
      ],
      "name": "URI",
      "type": "event"
    },
    {
      "inputs": [
        {
          "internalType": "address",
          "name": "_token",
          "type": "address"
        },
        {
          "internalType": "uint256",
          "name": "_contractSize",
          "type": "uint256"
        },
        {
          "internalType": "uint256",
          "name": "_strikePriceIncrement",
          "type": "uint256"
        }
      ],
      "name": "addToken",
      "outputs": [],
      "stateMutability": "nonpayable",
      "type": "function"
    },
    {
      "inputs": [
        {
          "internalType": "address",
          "name": "account",
          "type": "address"
        },
        {
          "internalType": "uint256",
          "name": "id",
          "type": "uint256"
        }
      ],
      "name": "balanceOf",
      "outputs": [
        {
          "internalType": "uint256",
          "name": "",
          "type": "uint256"
        }
      ],
      "stateMutability": "view",
      "type": "function"
    },
    {
      "inputs": [
        {
          "internalType": "address[]",
          "name": "accounts",
          "type": "address[]"
        },
        {
          "internalType": "uint256[]",
          "name": "ids",
          "type": "uint256[]"
        }
      ],
      "name": "balanceOfBatch",
      "outputs": [
        {
          "internalType": "uint256[]",
          "name": "",
          "type": "uint256[]"
        }
      ],
      "stateMutability": "view",
      "type": "function"
    },
    {
      "inputs": [
        {
          "internalType": "uint256",
          "name": "_optionId",
          "type": "uint256"
        },
        {
          "internalType": "uint256",
          "name": "_contractAmount",
          "type": "uint256"
        }
      ],
      "name": "cancelOption",
      "outputs": [],
      "stateMutability": "nonpayable",
      "type": "function"
    },
    {
      "inputs": [],
      "name": "dai",
      "outputs": [
        {
          "internalType": "contract IERC20",
          "name": "",
          "type": "address"
        }
      ],
      "stateMutability": "view",
      "type": "function"
    },
    {
      "inputs": [
        {
          "internalType": "uint256",
          "name": "_optionId",
          "type": "uint256"
        },
        {
          "internalType": "uint256",
          "name": "_contractAmount",
          "type": "uint256"
        }
      ],
      "name": "executeOption",
      "outputs": [],
      "stateMutability": "nonpayable",
      "type": "function"
    },
    {
      "inputs": [
        {
          "internalType": "address",
          "name": "_token",
          "type": "address"
        },
        {
          "internalType": "uint256",
          "name": "_expiration",
          "type": "uint256"
        },
        {
          "internalType": "uint256",
          "name": "_strikePrice",
          "type": "uint256"
        },
        {
          "internalType": "bool",
          "name": "_isCall",
          "type": "bool"
        }
      ],
      "name": "getOptionId",
      "outputs": [
        {
          "internalType": "uint256",
          "name": "",
          "type": "uint256"
        }
      ],
      "stateMutability": "view",
      "type": "function"
    },
    {
      "inputs": [
        {
          "internalType": "address",
          "name": "account",
          "type": "address"
        },
        {
          "internalType": "address",
          "name": "operator",
          "type": "address"
        }
      ],
      "name": "isApprovedForAll",
      "outputs": [
        {
          "internalType": "bool",
          "name": "",
          "type": "bool"
        }
      ],
      "stateMutability": "view",
      "type": "function"
    },
    {
      "inputs": [
        {
          "internalType": "address",
          "name": "",
          "type": "address"
        },
        {
          "internalType": "uint256",
          "name": "",
          "type": "uint256"
        }
      ],
      "name": "nbWritten",
      "outputs": [
        {
          "internalType": "uint256",
          "name": "",
          "type": "uint256"
        }
      ],
      "stateMutability": "view",
      "type": "function"
    },
    {
      "inputs": [],
      "name": "nextOptionId",
      "outputs": [
        {
          "internalType": "uint256",
          "name": "",
          "type": "uint256"
        }
      ],
      "stateMutability": "view",
      "type": "function"
    },
    {
      "inputs": [
        {
          "internalType": "uint256",
          "name": "",
          "type": "uint256"
        }
      ],
      "name": "optionClaimed",
      "outputs": [
        {
          "internalType": "uint256",
          "name": "",
          "type": "uint256"
        }
      ],
      "stateMutability": "view",
      "type": "function"
    },
    {
      "inputs": [
        {
          "internalType": "uint256",
          "name": "",
          "type": "uint256"
        }
      ],
      "name": "optionData",
      "outputs": [
        {
          "internalType": "address",
          "name": "token",
          "type": "address"
        },
        {
          "internalType": "uint256",
          "name": "expiration",
          "type": "uint256"
        },
        {
          "internalType": "uint256",
          "name": "strikePrice",
          "type": "uint256"
        },
        {
          "internalType": "bool",
          "name": "isCall",
          "type": "bool"
        }
      ],
      "stateMutability": "view",
      "type": "function"
    },
    {
      "inputs": [
        {
          "internalType": "uint256",
          "name": "",
          "type": "uint256"
        }
      ],
      "name": "optionExecuted",
      "outputs": [
        {
          "internalType": "uint256",
          "name": "",
          "type": "uint256"
        }
      ],
      "stateMutability": "view",
      "type": "function"
    },
    {
      "inputs": [
        {
          "internalType": "uint256",
          "name": "",
          "type": "uint256"
        }
      ],
      "name": "optionSupply",
      "outputs": [
        {
          "internalType": "uint256",
          "name": "",
          "type": "uint256"
        }
      ],
      "stateMutability": "view",
      "type": "function"
    },
    {
      "inputs": [
        {
          "internalType": "address",
          "name": "",
          "type": "address"
        },
        {
          "internalType": "uint256",
          "name": "",
          "type": "uint256"
        },
        {
          "internalType": "uint256",
          "name": "",
          "type": "uint256"
        },
        {
          "internalType": "bool",
          "name": "",
          "type": "bool"
        }
      ],
      "name": "options",
      "outputs": [
        {
          "internalType": "uint256",
          "name": "",
          "type": "uint256"
        }
      ],
      "stateMutability": "view",
      "type": "function"
    },
    {
      "inputs": [],
      "name": "owner",
      "outputs": [
        {
          "internalType": "address",
          "name": "",
          "type": "address"
        }
      ],
      "stateMutability": "view",
      "type": "function"
    },
    {
      "inputs": [
        {
          "internalType": "uint256",
          "name": "",
          "type": "uint256"
        }
      ],
      "name": "pools",
      "outputs": [
        {
          "internalType": "uint256",
          "name": "tokenAmount",
          "type": "uint256"
        },
        {
          "internalType": "uint256",
          "name": "daiAmount",
          "type": "uint256"
        }
      ],
      "stateMutability": "view",
      "type": "function"
    },
    {
      "inputs": [],
      "name": "renounceOwnership",
      "outputs": [],
      "stateMutability": "nonpayable",
      "type": "function"
    },
    {
      "inputs": [
        {
          "internalType": "address",
          "name": "from",
          "type": "address"
        },
        {
          "internalType": "address",
          "name": "to",
          "type": "address"
        },
        {
          "internalType": "uint256[]",
          "name": "ids",
          "type": "uint256[]"
        },
        {
          "internalType": "uint256[]",
          "name": "amounts",
          "type": "uint256[]"
        },
        {
          "internalType": "bytes",
          "name": "data",
          "type": "bytes"
        }
      ],
      "name": "safeBatchTransferFrom",
      "outputs": [],
      "stateMutability": "nonpayable",
      "type": "function"
    },
    {
      "inputs": [
        {
          "internalType": "address",
          "name": "from",
          "type": "address"
        },
        {
          "internalType": "address",
          "name": "to",
          "type": "address"
        },
        {
          "internalType": "uint256",
          "name": "id",
          "type": "uint256"
        },
        {
          "internalType": "uint256",
          "name": "amount",
          "type": "uint256"
        },
        {
          "internalType": "bytes",
          "name": "data",
          "type": "bytes"
        }
      ],
      "name": "safeTransferFrom",
      "outputs": [],
      "stateMutability": "nonpayable",
      "type": "function"
    },
    {
      "inputs": [
        {
          "internalType": "address",
          "name": "operator",
          "type": "address"
        },
        {
          "internalType": "bool",
          "name": "approved",
          "type": "bool"
        }
      ],
      "name": "setApprovalForAll",
      "outputs": [],
      "stateMutability": "nonpayable",
      "type": "function"
    },
    {
      "inputs": [
        {
          "internalType": "bytes4",
          "name": "interfaceId",
          "type": "bytes4"
        }
      ],
      "name": "supportsInterface",
      "outputs": [
        {
          "internalType": "bool",
          "name": "",
          "type": "bool"
        }
      ],
      "stateMutability": "view",
      "type": "function"
    },
    {
      "inputs": [
        {
          "internalType": "address",
          "name": "",
          "type": "address"
        }
      ],
      "name": "tokenSettings",
      "outputs": [
        {
          "internalType": "uint256",
          "name": "contractSize",
          "type": "uint256"
        },
        {
          "internalType": "uint256",
          "name": "strikePriceIncrement",
          "type": "uint256"
        },
        {
          "internalType": "bool",
          "name": "isDisabled",
          "type": "bool"
        }
      ],
      "stateMutability": "view",
      "type": "function"
    },
    {
      "inputs": [
        {
          "internalType": "uint256",
          "name": "",
          "type": "uint256"
        }
      ],
      "name": "tokens",
      "outputs": [
        {
          "internalType": "address",
          "name": "",
          "type": "address"
        }
      ],
      "stateMutability": "view",
      "type": "function"
    },
    {
      "inputs": [
        {
          "internalType": "address",
          "name": "newOwner",
          "type": "address"
        }
      ],
      "name": "transferOwnership",
      "outputs": [],
      "stateMutability": "nonpayable",
      "type": "function"
    },
    {
      "inputs": [
        {
          "internalType": "uint256",
          "name": "",
          "type": "uint256"
        }
      ],
      "name": "uri",
      "outputs": [
        {
          "internalType": "string",
          "name": "",
          "type": "string"
        }
      ],
      "stateMutability": "view",
      "type": "function"
    },
    {
      "inputs": [
        {
          "internalType": "uint256",
          "name": "_optionId",
          "type": "uint256"
        }
      ],
      "name": "withdraw",
      "outputs": [],
      "stateMutability": "nonpayable",
      "type": "function"
    },
    {
      "inputs": [
        {
          "internalType": "address",
          "name": "_token",
          "type": "address"
        },
        {
          "internalType": "uint256",
          "name": "_expiration",
          "type": "uint256"
        },
        {
          "internalType": "uint256",
          "name": "_strikePrice",
          "type": "uint256"
        },
        {
          "internalType": "bool",
          "name": "_isCall",
          "type": "bool"
        },
        {
          "internalType": "uint256",
          "name": "_contractAmount",
          "type": "uint256"
        }
      ],
      "name": "writeOption",
      "outputs": [],
      "stateMutability": "nonpayable",
      "type": "function"
    }
  ],
  "bytecode": "0x608060405262093a806005556001600c553480156200001d57600080fd5b50604051620058fd380380620058fd833981810160405260408110156200004357600080fd5b81019080805160405193929190846401000000008211156200006457600080fd5b838201915060208201858111156200007b57600080fd5b82518660018202830111640100000000821117156200009957600080fd5b8083526020830192505050908051906020019080838360005b83811015620000cf578082015181840152602081019050620000b2565b50505050905090810190601f168015620000fd5780820380516001836020036101000a031916815260200191505b5060405260200180519060200190929190505050816000620001246200026560201b60201c565b9050806000806101000a81548173ffffffffffffffffffffffffffffffffffffffff021916908373ffffffffffffffffffffffffffffffffffffffff1602179055508073ffffffffffffffffffffffffffffffffffffffff16600073ffffffffffffffffffffffffffffffffffffffff167f8be0079c531659141344cd1fd0a4f28419497f9722a3daafe3b4186f6b6457e060405160405180910390a350620001da6301ffc9a760e01b6200026d60201b60201c565b620001eb816200037660201b60201c565b6200020363d9b67a2660e01b6200026d60201b60201c565b6200021b630e89341c60e01b6200026d60201b60201c565b5080600660006101000a81548173ffffffffffffffffffffffffffffffffffffffff021916908373ffffffffffffffffffffffffffffffffffffffff160217905550505062000438565b600033905090565b63ffffffff60e01b817bffffffffffffffffffffffffffffffffffffffffffffffffffffffff191614156200030a576040517f08c379a000000000000000000000000000000000000000000000000000000000815260040180806020018281038252601c8152602001807f4552433136353a20696e76616c696420696e746572666163652069640000000081525060200191505060405180910390fd5b6001806000837bffffffffffffffffffffffffffffffffffffffffffffffffffffffff19167bffffffffffffffffffffffffffffffffffffffffffffffffffffffff1916815260200190815260200160002060006101000a81548160ff02191690831515021790555050565b80600490805190602001906200038e92919062000392565b5050565b828054600181600116156101000203166002900490600052602060002090601f016020900481019282601f10620003d557805160ff191683800117855562000406565b8280016001018555821562000406579182015b8281111562000405578251825591602001919060010190620003e8565b5b50905062000415919062000419565b5090565b5b80821115620004345760008160009055506001016200041a565b5090565b6154b580620004486000396000f3fe608060405234801561001057600080fd5b50600436106101c35760003560e01c8063715018a6116100f9578063c80f510011610097578063e985e9c511610071578063e985e9c514610c98578063f242432a14610d12578063f2fde38b14610e21578063f4b9fa7514610e65576101c3565b8063c80f510014610b96578063dee1f2af14610bd8578063e923e8d414610c30576101c3565b80639215abb0116100d35780639215abb014610a67578063a22cb46514610a85578063ac4afa3814610ad5578063b4ac946014610b1e576101c3565b8063715018a6146109bb57806375bc33e4146109c55780638da5cb5b14610a33576101c3565b806330b025eb1161016657806343ce7e731161014057806343ce7e731461073e5780634ba686b8146107805780634e1273f4146107c25780634f64b2be14610963576101c3565b806330b025eb1461066c578063324478d1146106a4578063410e4e26146106dc576101c3565b80631f01a794116101a25780631f01a79414610334578063263621f3146103a35780632e1a7d4d1461041b5780632eb2c2d614610449576101c3565b8062fdd58e146101c857806301ffc9a71461022a5780630e89341c1461028d575b600080fd5b610214600480360360408110156101de57600080fd5b81019080803573ffffffffffffffffffffffffffffffffffffffff16906020019092919080359060200190929190505050610e99565b6040518082815260200191505060405180910390f35b6102756004803603602081101561024057600080fd5b8101908080357bffffffffffffffffffffffffffffffffffffffffffffffffffffffff19169060200190929190505050610f79565b60405180821515815260200191505060405180910390f35b6102b9600480360360208110156102a357600080fd5b8101908080359060200190929190505050610fe1565b6040518080602001828103825283818151815260200191508051906020019080838360005b838110156102f95780820151818401526020810190506102de565b50505050905090810190601f1680156103265780820380516001836020036101000a031916815260200191505b509250505060405180910390f35b6103606004803603602081101561034a57600080fd5b8101908080359060200190929190505050611085565b604051808573ffffffffffffffffffffffffffffffffffffffff168152602001848152602001838152602001821515815260200194505050505060405180910390f35b610405600480360360808110156103b957600080fd5b81019080803573ffffffffffffffffffffffffffffffffffffffff16906020019092919080359060200190929190803590602001909291908035151590602001909291905050506110e2565b6040518082815260200191505060405180910390f35b6104476004803603602081101561043157600080fd5b8101908080359060200190929190505050611165565b005b61066a600480360360a081101561045f57600080fd5b81019080803573ffffffffffffffffffffffffffffffffffffffff169060200190929190803573ffffffffffffffffffffffffffffffffffffffff169060200190929190803590602001906401000000008111156104bc57600080fd5b8201836020820111156104ce57600080fd5b803590602001918460208302840111640100000000831117156104f057600080fd5b919080806020026020016040519081016040528093929190818152602001838360200280828437600081840152601f19601f8201169050808301925050505050505091929192908035906020019064010000000081111561055057600080fd5b82018360208201111561056257600080fd5b8035906020019184602083028401116401000000008311171561058457600080fd5b919080806020026020016040519081016040528093929190818152602001838360200280828437600081840152601f19601f820116905080830192505050505050509192919290803590602001906401000000008111156105e457600080fd5b8201836020820111156105f657600080fd5b8035906020019184600183028401116401000000008311171561061857600080fd5b91908080601f016020809104026020016040519081016040528093929190818152602001838380828437600081840152601f19601f82011690508083019250505050505050919291929050505061157d565b005b6106a26004803603604081101561068257600080fd5b810190808035906020019092919080359060200190929190505050611a08565b005b6106da600480360360408110156106ba57600080fd5b810190808035906020019092919080359060200190929190505050611f00565b005b610728600480360360408110156106f257600080fd5b81019080803573ffffffffffffffffffffffffffffffffffffffff169060200190929190803590602001909291905050506123d7565b6040518082815260200191505060405180910390f35b61076a6004803603602081101561075457600080fd5b81019080803590602001909291905050506123fc565b6040518082815260200191505060405180910390f35b6107ac6004803603602081101561079657600080fd5b8101908080359060200190929190505050612414565b6040518082815260200191505060405180910390f35b61090c600480360360408110156107d857600080fd5b81019080803590602001906401000000008111156107f557600080fd5b82018360208201111561080757600080fd5b8035906020019184602083028401116401000000008311171561082957600080fd5b919080806020026020016040519081016040528093929190818152602001838360200280828437600081840152601f19601f8201169050808301925050505050505091929192908035906020019064010000000081111561088957600080fd5b82018360208201111561089b57600080fd5b803590602001918460208302840111640100000000831117156108bd57600080fd5b919080806020026020016040519081016040528093929190818152602001838360200280828437600081840152601f19601f82011690508083019250505050505050919291929050505061242c565b6040518080602001828103825283818151815260200191508051906020019060200280838360005b8381101561094f578082015181840152602081019050610934565b505050509050019250505060405180910390f35b61098f6004803603602081101561097957600080fd5b810190808035906020019092919050505061261e565b604051808273ffffffffffffffffffffffffffffffffffffffff16815260200191505060405180910390f35b6109c361265a565b005b610a31600480360360a08110156109db57600080fd5b81019080803573ffffffffffffffffffffffffffffffffffffffff1690602001909291908035906020019092919080359060200190929190803515159060200190929190803590602001909291905050506127e0565b005b610a3b612c43565b604051808273ffffffffffffffffffffffffffffffffffffffff16815260200191505060405180910390f35b610a6f612c6c565b6040518082815260200191505060405180910390f35b610ad360048036036040811015610a9b57600080fd5b81019080803573ffffffffffffffffffffffffffffffffffffffff169060200190929190803515159060200190929190505050612c72565b005b610b0160048036036020811015610aeb57600080fd5b8101908080359060200190929190505050612e0b565b604051808381526020018281526020019250505060405180910390f35b610b8060048036036080811015610b3457600080fd5b81019080803573ffffffffffffffffffffffffffffffffffffffff1690602001909291908035906020019092919080359060200190929190803515159060200190929190505050612e2f565b6040518082815260200191505060405180910390f35b610bc260048036036020811015610bac57600080fd5b8101908080359060200190929190505050612e6e565b6040518082815260200191505060405180910390f35b610c2e60048036036060811015610bee57600080fd5b81019080803573ffffffffffffffffffffffffffffffffffffffff1690602001909291908035906020019092919080359060200190929190505050612e86565b005b610c7260048036036020811015610c4657600080fd5b81019080803573ffffffffffffffffffffffffffffffffffffffff1690602001909291905050506131c9565b604051808481526020018381526020018215158152602001935050505060405180910390f35b610cfa60048036036040811015610cae57600080fd5b81019080803573ffffffffffffffffffffffffffffffffffffffff169060200190929190803573ffffffffffffffffffffffffffffffffffffffff169060200190929190505050613200565b60405180821515815260200191505060405180910390f35b610e1f600480360360a0811015610d2857600080fd5b81019080803573ffffffffffffffffffffffffffffffffffffffff169060200190929190803573ffffffffffffffffffffffffffffffffffffffff169060200190929190803590602001909291908035906020019092919080359060200190640100000000811115610d9957600080fd5b820183602082011115610dab57600080fd5b80359060200191846001830284011164010000000083111715610dcd57600080fd5b91908080601f016020809104026020016040519081016040528093929190818152602001838380828437600081840152601f19601f820116905080830192505050505050509192919290505050613294565b005b610e6360048036036020811015610e3757600080fd5b81019080803573ffffffffffffffffffffffffffffffffffffffff169060200190929190505050613609565b005b610e6d613814565b604051808273ffffffffffffffffffffffffffffffffffffffff16815260200191505060405180910390f35b60008073ffffffffffffffffffffffffffffffffffffffff168373ffffffffffffffffffffffffffffffffffffffff161415610f20576040517f08c379a000000000000000000000000000000000000000000000000000000000815260040180806020018281038252602b8152602001806151b5602b913960400191505060405180910390fd5b6002600083815260200190815260200160002060008473ffffffffffffffffffffffffffffffffffffffff1673ffffffffffffffffffffffffffffffffffffffff16815260200190815260200160002054905092915050565b600060016000837bffffffffffffffffffffffffffffffffffffffffffffffffffffffff19167bffffffffffffffffffffffffffffffffffffffffffffffffffffffff1916815260200190815260200160002060009054906101000a900460ff169050919050565b606060048054600181600116156101000203166002900480601f0160208091040260200160405190810160405280929190818152602001828054600181600116156101000203166002900480156110795780601f1061104e57610100808354040283529160200191611079565b820191906000526020600020905b81548152906001019060200180831161105c57829003601f168201915b50505050509050919050565b600e6020528060005260406000206000915090508060000160009054906101000a900473ffffffffffffffffffffffffffffffffffffffff16908060010154908060020154908060030160009054906101000a900460ff16905084565b6000600d60008673ffffffffffffffffffffffffffffffffffffffff1673ffffffffffffffffffffffffffffffffffffffff16815260200190815260200160002060008581526020019081526020016000206000848152602001908152602001600020600083151515158152602001908152602001600020549050949350505050565b80600e6000828152602001908152602001600020600101544210156111f2576040517f08c379a00000000000000000000000000000000000000000000000000000000081526004018080602001828103825260128152602001807f4f7074696f6e206e6f742065787069726564000000000000000000000000000081525060200191505060405180910390fd5b6000601060003373ffffffffffffffffffffffffffffffffffffffff1673ffffffffffffffffffffffffffffffffffffffff1681526020019081526020016000206000848152602001908152602001600020541161129b576040517f08c379a00000000000000000000000000000000000000000000000000000000081526004018080602001828103825260298152602001806153926029913960400191505060405180910390fd5b60006112d6600a600085815260200190815260200160002054600960008681526020019081526020016000205461383a90919063ffffffff16565b90506000600b6000858152602001908152602001600020549050600061130582846138c290919063ffffffff16565b90506000601060003373ffffffffffffffffffffffffffffffffffffffff1673ffffffffffffffffffffffffffffffffffffffff168152602001908152602001600020600087815260200190815260200160002054905060006113998261138b85600f60008c81526020019081526020016000206001015461390c90919063ffffffff16565b61399290919063ffffffff16565b905060006113d8836113ca86600f60008d81526020019081526020016000206000015461390c90919063ffffffff16565b61399290919063ffffffff16565b90506000600e60008a815260200190815260200160002060000160009054906101000a900473ffffffffffffffffffffffffffffffffffffffff16905061143e83600f60008c8152602001908152602001600020600101546138c290919063ffffffff16565b5061146882600f60008c8152602001908152602001600020600001546138c290919063ffffffff16565b5061148f84600b60008c81526020019081526020016000205461383a90919063ffffffff16565b600b60008b815260200190815260200160002081905550601060003373ffffffffffffffffffffffffffffffffffffffff1673ffffffffffffffffffffffffffffffffffffffff16815260200190815260200160002060008a8152602001908152602001600020600090556115473384600660009054906101000a900473ffffffffffffffffffffffffffffffffffffffff1673ffffffffffffffffffffffffffffffffffffffff166139dc9092919063ffffffff16565b61157233838373ffffffffffffffffffffffffffffffffffffffff166139dc9092919063ffffffff16565b505050505050505050565b81518351146115d7576040517f08c379a00000000000000000000000000000000000000000000000000000000081526004018080602001828103825260288152602001806154376028913960400191505060405180910390fd5b600073ffffffffffffffffffffffffffffffffffffffff168473ffffffffffffffffffffffffffffffffffffffff16141561165d576040517f08c379a00000000000000000000000000000000000000000000000000000000081526004018080602001828103825260258152602001806152cd6025913960400191505060405180910390fd5b611665613a7e565b73ffffffffffffffffffffffffffffffffffffffff168573ffffffffffffffffffffffffffffffffffffffff1614806116ab57506116aa856116a5613a7e565b613200565b5b611700576040517f08c379a00000000000000000000000000000000000000000000000000000000081526004018080602001828103825260328152602001806152f26032913960400191505060405180910390fd5b600061170a613a7e565b905061171a818787878787613a86565b60005b84518110156118eb57600085828151811061173457fe5b60200260200101519050600085838151811061174c57fe5b602002602001015190506117d3816040518060600160405280602a8152602001615347602a91396002600086815260200190815260200160002060008d73ffffffffffffffffffffffffffffffffffffffff1673ffffffffffffffffffffffffffffffffffffffff16815260200190815260200160002054613a8e9092919063ffffffff16565b6002600084815260200190815260200160002060008b73ffffffffffffffffffffffffffffffffffffffff1673ffffffffffffffffffffffffffffffffffffffff1681526020019081526020016000208190555061188a816002600085815260200190815260200160002060008b73ffffffffffffffffffffffffffffffffffffffff1673ffffffffffffffffffffffffffffffffffffffff1681526020019081526020016000205461383a90919063ffffffff16565b6002600084815260200190815260200160002060008a73ffffffffffffffffffffffffffffffffffffffff1673ffffffffffffffffffffffffffffffffffffffff16815260200190815260200160002081905550505080600101905061171d565b508473ffffffffffffffffffffffffffffffffffffffff168673ffffffffffffffffffffffffffffffffffffffff168273ffffffffffffffffffffffffffffffffffffffff167f4a39dc06d4c0dbc64b70af90fd698a233a518aa5d07e595d983b8c0526c8f7fb8787604051808060200180602001838103835285818151815260200191508051906020019060200280838360005b8381101561199b578082015181840152602081019050611980565b50505050905001838103825284818151815260200191508051906020019060200280838360005b838110156119dd5780820151818401526020810190506119c2565b5050505090500194505050505060405180910390a4611a00818787878787613b4e565b505050505050565b81600e6000828152602001908152602001600020600101544210611a94576040517f08c379a000000000000000000000000000000000000000000000000000000000815260040180806020018281038252600e8152602001807f4f7074696f6e206578706972656400000000000000000000000000000000000081525060200191505060405180910390fd5b60008211611b0a576040517f08c379a000000000000000000000000000000000000000000000000000000000815260040180806020018281038252601a8152602001807f436f6e7472616374416d6f756e74206d757374206265203e203000000000000081525060200191505060405180910390fd5b81601060003373ffffffffffffffffffffffffffffffffffffffff1673ffffffffffffffffffffffffffffffffffffffff1681526020019081526020016000206000858152602001908152602001600020541015611bb3576040517f08c379a00000000000000000000000000000000000000000000000000000000081526004018080602001828103825260258152602001806152846025913960400191505060405180910390fd5b611bbe338484613edd565b611c2182601060003373ffffffffffffffffffffffffffffffffffffffff1673ffffffffffffffffffffffffffffffffffffffff1681526020019081526020016000206000868152602001908152602001600020546138c290919063ffffffff16565b601060003373ffffffffffffffffffffffffffffffffffffffff1673ffffffffffffffffffffffffffffffffffffffff168152602001908152602001600020600085815260200190815260200160002081905550611c7d615021565b600e60008581526020019081526020016000206040518060800160405290816000820160009054906101000a900473ffffffffffffffffffffffffffffffffffffffff1673ffffffffffffffffffffffffffffffffffffffff1673ffffffffffffffffffffffffffffffffffffffff16815260200160018201548152602001600282015481526020016003820160009054906101000a900460ff1615151515815250509050611d2a615061565b60086000836000015173ffffffffffffffffffffffffffffffffffffffff1673ffffffffffffffffffffffffffffffffffffffff16815260200190815260200160002060405180606001604052908160008201548152602001600182015481526020016002820160009054906101000a900460ff1615151515815250509050816060015115611e64576000611dcc83604001518661390c90919063ffffffff16565b9050611df781600f6000898152602001908152602001600020600101546138c290919063ffffffff16565b600f600088815260200190815260200160002060010181905550611e5e3382600660009054906101000a900473ffffffffffffffffffffffffffffffffffffffff1673ffffffffffffffffffffffffffffffffffffffff166139dc9092919063ffffffff16565b50611ef9565b6000826000015190506000611e8683600001518761390c90919063ffffffff16565b9050611eb181600f60008a8152602001908152602001600020600001546138c290919063ffffffff16565b600f600089815260200190815260200160002060000181905550611ef633828473ffffffffffffffffffffffffffffffffffffffff166139dc9092919063ffffffff16565b50505b5050505050565b81600e6000828152602001908152602001600020600101544210611f8c576040517f08c379a000000000000000000000000000000000000000000000000000000000815260040180806020018281038252600e8152602001807f4f7074696f6e206578706972656400000000000000000000000000000000000081525060200191505060405180910390fd5b60008211612002576040517f08c379a000000000000000000000000000000000000000000000000000000000815260040180806020018281038252601a8152602001807f436f6e7472616374416d6f756e74206d757374206265203e203000000000000081525060200191505060405180910390fd5b61200a615021565b600e60008581526020019081526020016000206040518060800160405290816000820160009054906101000a900473ffffffffffffffffffffffffffffffffffffffff1673ffffffffffffffffffffffffffffffffffffffff1673ffffffffffffffffffffffffffffffffffffffff16815260200160018201548152602001600282015481526020016003820160009054906101000a900460ff16151515158152505090506120b7615061565b60086000836000015173ffffffffffffffffffffffffffffffffffffffff1673ffffffffffffffffffffffffffffffffffffffff16815260200190815260200160002060405180606001604052908160008201548152602001600182015481526020016002820160009054906101000a900460ff1615151515815250509050612141338686613edd565b61216784600a60008881526020019081526020016000205461383a90919063ffffffff16565b600a60008781526020019081526020016000208190555060008260000151905060006121a083600001518761390c90919063ffffffff16565b905060006121bb85604001518861390c90919063ffffffff16565b90508460600151156122cc576121f081600f60008b8152602001908152602001600020600101546138c290919063ffffffff16565b600f60008a81526020019081526020016000206001018190555061223382600f60008b81526020019081526020016000206000015461383a90919063ffffffff16565b600f60008a81526020019081526020016000206000018190555061227a3330848673ffffffffffffffffffffffffffffffffffffffff16613f2a909392919063ffffffff16565b6122c73382600660009054906101000a900473ffffffffffffffffffffffffffffffffffffffff1673ffffffffffffffffffffffffffffffffffffffff166139dc9092919063ffffffff16565b6123cd565b6122f582600f60008b8152602001908152602001600020600001546138c290919063ffffffff16565b600f60008a81526020019081526020016000206000018190555061233881600f60008b81526020019081526020016000206001015461383a90919063ffffffff16565b600f60008a8152602001908152602001600020600101819055506123a1333083600660009054906101000a900473ffffffffffffffffffffffffffffffffffffffff1673ffffffffffffffffffffffffffffffffffffffff16613f2a909392919063ffffffff16565b6123cc33838573ffffffffffffffffffffffffffffffffffffffff166139dc9092919063ffffffff16565b5b5050505050505050565b6010602052816000526040600020602052806000526040600020600091509150505481565b60096020528060005260406000206000915090505481565b600a6020528060005260406000206000915090505481565b60608151835114612488576040517f08c379a000000000000000000000000000000000000000000000000000000000815260040180806020018281038252602981526020018061540e6029913960400191505060405180910390fd5b6060835167ffffffffffffffff811180156124a257600080fd5b506040519080825280602002602001820160405280156124d15781602001602082028036833780820191505090505b50905060005b845181101561261357600073ffffffffffffffffffffffffffffffffffffffff1685828151811061250457fe5b602002602001015173ffffffffffffffffffffffffffffffffffffffff161415612579576040517f08c379a00000000000000000000000000000000000000000000000000000000081526004018080602001828103825260318152602001806151e06031913960400191505060405180910390fd5b6002600085838151811061258957fe5b6020026020010151815260200190815260200160002060008683815181106125ad57fe5b602002602001015173ffffffffffffffffffffffffffffffffffffffff1673ffffffffffffffffffffffffffffffffffffffff168152602001908152602001600020548282815181106125fc57fe5b6020026020010181815250508060010190506124d7565b508091505092915050565b6007818154811061262b57fe5b906000526020600020016000915054906101000a900473ffffffffffffffffffffffffffffffffffffffff1681565b612662613a7e565b73ffffffffffffffffffffffffffffffffffffffff1660008054906101000a900473ffffffffffffffffffffffffffffffffffffffff1673ffffffffffffffffffffffffffffffffffffffff1614612722576040517f08c379a00000000000000000000000000000000000000000000000000000000081526004018080602001828103825260208152602001807f4f776e61626c653a2063616c6c6572206973206e6f7420746865206f776e657281525060200191505060405180910390fd5b600073ffffffffffffffffffffffffffffffffffffffff1660008054906101000a900473ffffffffffffffffffffffffffffffffffffffff1673ffffffffffffffffffffffffffffffffffffffff167f8be0079c531659141344cd1fd0a4f28419497f9722a3daafe3b4186f6b6457e060405160405180910390a360008060006101000a81548173ffffffffffffffffffffffffffffffffffffffff021916908373ffffffffffffffffffffffffffffffffffffffff160217905550565b6127ec85828587613feb565b6127f4615061565b600860008773ffffffffffffffffffffffffffffffffffffffff1673ffffffffffffffffffffffffffffffffffffffff16815260200190815260200160002060405180606001604052908160008201548152602001600182015481526020016002820160009054906101000a900460ff1615151515815250509050600061287d878787876110e2565b90506000811415612a3057600c54905080600d60008973ffffffffffffffffffffffffffffffffffffffff1673ffffffffffffffffffffffffffffffffffffffff16815260200190815260200160002060008881526020019081526020016000206000878152602001908152602001600020600086151515158152602001908152602001600020819055506040518060400160405280600081526020016000815250600f6000838152602001908152602001600020600082015181600001556020820151816001015590505060405180608001604052808873ffffffffffffffffffffffffffffffffffffffff168152602001878152602001868152602001851515815250600e600083815260200190815260200160002060008201518160000160006101000a81548173ffffffffffffffffffffffffffffffffffffffff021916908373ffffffffffffffffffffffffffffffffffffffff160217905550602082015181600101556040820151816002015560608201518160030160006101000a81548160ff021916908315150217905550905050612a296001600c5461383a90919063ffffffff16565b600c819055505b8315612ae5576000612a4b868561390c90919063ffffffff16565b9050612a9c333083600660009054906101000a900473ffffffffffffffffffffffffffffffffffffffff1673ffffffffffffffffffffffffffffffffffffffff16613f2a909392919063ffffffff16565b612ac581600f60008581526020019081526020016000206001015461383a90919063ffffffff16565b600f60008481526020019081526020016000206001018190555050612b78565b60008790506000612b0384600001518661390c90919063ffffffff16565b9050612b323330838573ffffffffffffffffffffffffffffffffffffffff16613f2a909392919063ffffffff16565b612b5b81600f60008681526020019081526020016000206000015461383a90919063ffffffff16565b600f60008581526020019081526020016000206000018190555050505b612bdb83601060003373ffffffffffffffffffffffffffffffffffffffff1673ffffffffffffffffffffffffffffffffffffffff16815260200190815260200160002060008481526020019081526020016000205461383a90919063ffffffff16565b601060003373ffffffffffffffffffffffffffffffffffffffff1673ffffffffffffffffffffffffffffffffffffffff168152602001908152602001600020600083815260200190815260200160002081905550612c3a3382856143c6565b50505050505050565b60008060009054906101000a900473ffffffffffffffffffffffffffffffffffffffff16905090565b600c5481565b8173ffffffffffffffffffffffffffffffffffffffff16612c91613a7e565b73ffffffffffffffffffffffffffffffffffffffff161415612cfe576040517f08c379a00000000000000000000000000000000000000000000000000000000081526004018080602001828103825260298152602001806153bb6029913960400191505060405180910390fd5b8060036000612d0b613a7e565b73ffffffffffffffffffffffffffffffffffffffff1673ffffffffffffffffffffffffffffffffffffffff16815260200190815260200160002060008473ffffffffffffffffffffffffffffffffffffffff1673ffffffffffffffffffffffffffffffffffffffff16815260200190815260200160002060006101000a81548160ff0219169083151502179055508173ffffffffffffffffffffffffffffffffffffffff16612db8613a7e565b73ffffffffffffffffffffffffffffffffffffffff167f17307eab39ab6107e8899845ad3d59bd9653f200f220920489ca2b5937696c318360405180821515815260200191505060405180910390a35050565b600f6020528060005260406000206000915090508060000154908060010154905082565b600d6020528360005260406000206020528260005260406000206020528160005260406000206020528060005260406000206000935093505050505481565b600b6020528060005260406000206000915090505481565b612e8e613a7e565b73ffffffffffffffffffffffffffffffffffffffff1660008054906101000a900473ffffffffffffffffffffffffffffffffffffffff1673ffffffffffffffffffffffffffffffffffffffff1614612f4e576040517f08c379a00000000000000000000000000000000000000000000000000000000081526004018080602001828103825260208152602001807f4f776e61626c653a2063616c6c6572206973206e6f7420746865206f776e657281525060200191505060405180910390fd5b60001515612fe2846007805480602002602001604051908101604052809291908181526020018280548015612fd857602002820191906000526020600020905b8160009054906101000a900473ffffffffffffffffffffffffffffffffffffffff1673ffffffffffffffffffffffffffffffffffffffff1681526020019060010190808311612f8e575b5050505050614423565b151514613057576040517f08c379a00000000000000000000000000000000000000000000000000000000081526004018080602001828103825260138152602001807f546f6b656e20616c72656164792061646465640000000000000000000000000081525060200191505060405180910390fd5b600081116130cd576040517f08c379a000000000000000000000000000000000000000000000000000000000815260040180806020018281038252601c8152602001807f537472696b6520696e6372656d656e74206d757374206265203e20300000000081525060200191505060405180910390fd5b6007839080600181540180825580915050600190039060005260206000200160009091909190916101000a81548173ffffffffffffffffffffffffffffffffffffffff021916908373ffffffffffffffffffffffffffffffffffffffff160217905550604051806060016040528083815260200182815260200160001515815250600860008573ffffffffffffffffffffffffffffffffffffffff1673ffffffffffffffffffffffffffffffffffffffff168152602001908152602001600020600082015181600001556020820151816001015560408201518160020160006101000a81548160ff021916908315150217905550905050505050565b60086020528060005260406000206000915090508060000154908060010154908060020160009054906101000a900460ff16905083565b6000600360008473ffffffffffffffffffffffffffffffffffffffff1673ffffffffffffffffffffffffffffffffffffffff16815260200190815260200160002060008373ffffffffffffffffffffffffffffffffffffffff1673ffffffffffffffffffffffffffffffffffffffff16815260200190815260200160002060009054906101000a900460ff16905092915050565b600073ffffffffffffffffffffffffffffffffffffffff168473ffffffffffffffffffffffffffffffffffffffff16141561331a576040517f08c379a00000000000000000000000000000000000000000000000000000000081526004018080602001828103825260258152602001806152cd6025913960400191505060405180910390fd5b613322613a7e565b73ffffffffffffffffffffffffffffffffffffffff168573ffffffffffffffffffffffffffffffffffffffff161480613368575061336785613362613a7e565b613200565b5b6133bd576040517f08c379a000000000000000000000000000000000000000000000000000000000815260040180806020018281038252602981526020018061525b6029913960400191505060405180910390fd5b60006133c7613a7e565b90506133e78187876133d88861449f565b6133e18861449f565b87613a86565b613464836040518060600160405280602a8152602001615347602a91396002600088815260200190815260200160002060008a73ffffffffffffffffffffffffffffffffffffffff1673ffffffffffffffffffffffffffffffffffffffff16815260200190815260200160002054613a8e9092919063ffffffff16565b6002600086815260200190815260200160002060008873ffffffffffffffffffffffffffffffffffffffff1673ffffffffffffffffffffffffffffffffffffffff1681526020019081526020016000208190555061351b836002600087815260200190815260200160002060008873ffffffffffffffffffffffffffffffffffffffff1673ffffffffffffffffffffffffffffffffffffffff1681526020019081526020016000205461383a90919063ffffffff16565b6002600086815260200190815260200160002060008773ffffffffffffffffffffffffffffffffffffffff1673ffffffffffffffffffffffffffffffffffffffff168152602001908152602001600020819055508473ffffffffffffffffffffffffffffffffffffffff168673ffffffffffffffffffffffffffffffffffffffff168273ffffffffffffffffffffffffffffffffffffffff167fc3d58168c5ae7397731d063d5bbf3d657854427343f4c083240f7aacaa2d0f628787604051808381526020018281526020019250505060405180910390a461360181878787878761450f565b505050505050565b613611613a7e565b73ffffffffffffffffffffffffffffffffffffffff1660008054906101000a900473ffffffffffffffffffffffffffffffffffffffff1673ffffffffffffffffffffffffffffffffffffffff16146136d1576040517f08c379a00000000000000000000000000000000000000000000000000000000081526004018080602001828103825260208152602001807f4f776e61626c653a2063616c6c6572206973206e6f7420746865206f776e657281525060200191505060405180910390fd5b600073ffffffffffffffffffffffffffffffffffffffff168173ffffffffffffffffffffffffffffffffffffffff161415613757576040517f08c379a00000000000000000000000000000000000000000000000000000000081526004018080602001828103825260268152602001806152116026913960400191505060405180910390fd5b8073ffffffffffffffffffffffffffffffffffffffff1660008054906101000a900473ffffffffffffffffffffffffffffffffffffffff1673ffffffffffffffffffffffffffffffffffffffff167f8be0079c531659141344cd1fd0a4f28419497f9722a3daafe3b4186f6b6457e060405160405180910390a3806000806101000a81548173ffffffffffffffffffffffffffffffffffffffff021916908373ffffffffffffffffffffffffffffffffffffffff16021790555050565b600660009054906101000a900473ffffffffffffffffffffffffffffffffffffffff1681565b6000808284019050838110156138b8576040517f08c379a000000000000000000000000000000000000000000000000000000000815260040180806020018281038252601b8152602001807f536166654d6174683a206164646974696f6e206f766572666c6f77000000000081525060200191505060405180910390fd5b8091505092915050565b600061390483836040518060400160405280601e81526020017f536166654d6174683a207375627472616374696f6e206f766572666c6f770000815250613a8e565b905092915050565b60008083141561391f576000905061398c565b600082840290508284828161393057fe5b0414613987576040517f08c379a00000000000000000000000000000000000000000000000000000000081526004018080602001828103825260218152602001806153716021913960400191505060405180910390fd5b809150505b92915050565b60006139d483836040518060400160405280601a81526020017f536166654d6174683a206469766973696f6e206279207a65726f00000000000081525061481c565b905092915050565b613a798363a9059cbb60e01b8484604051602401808373ffffffffffffffffffffffffffffffffffffffff16815260200182815260200192505050604051602081830303815290604052907bffffffffffffffffffffffffffffffffffffffffffffffffffffffff19166020820180517bffffffffffffffffffffffffffffffffffffffffffffffffffffffff83818316178352505050506148e2565b505050565b600033905090565b505050505050565b6000838311158290613b3b576040517f08c379a00000000000000000000000000000000000000000000000000000000081526004018080602001828103825283818151815260200191508051906020019080838360005b83811015613b00578082015181840152602081019050613ae5565b50505050905090810190601f168015613b2d5780820380516001836020036101000a031916815260200191505b509250505060405180910390fd5b5060008385039050809150509392505050565b613b6d8473ffffffffffffffffffffffffffffffffffffffff166149d1565b15613ed5578373ffffffffffffffffffffffffffffffffffffffff1663bc197c8187878686866040518663ffffffff1660e01b8152600401808673ffffffffffffffffffffffffffffffffffffffff1681526020018573ffffffffffffffffffffffffffffffffffffffff168152602001806020018060200180602001848103845287818151815260200191508051906020019060200280838360005b83811015613c25578082015181840152602081019050613c0a565b50505050905001848103835286818151815260200191508051906020019060200280838360005b83811015613c67578082015181840152602081019050613c4c565b50505050905001848103825285818151815260200191508051906020019080838360005b83811015613ca6578082015181840152602081019050613c8b565b50505050905090810190601f168015613cd35780820380516001836020036101000a031916815260200191505b5098505050505050505050602060405180830381600087803b158015613cf857600080fd5b505af1925050508015613d2c57506040513d6020811015613d1857600080fd5b810190808051906020019092919050505060015b613e3657613d386150a2565b80613d435750613de5565b806040517f08c379a00000000000000000000000000000000000000000000000000000000081526004018080602001828103825283818151815260200191508051906020019080838360005b83811015613daa578082015181840152602081019050613d8f565b50505050905090810190601f168015613dd75780820380516001836020036101000a031916815260200191505b509250505060405180910390fd5b6040517f08c379a00000000000000000000000000000000000000000000000000000000081526004018080602001828103825260348152602001806151596034913960400191505060405180910390fd5b63bc197c8160e01b7bffffffffffffffffffffffffffffffffffffffffffffffffffffffff1916817bffffffffffffffffffffffffffffffffffffffffffffffffffffffff191614613ed3576040517f08c379a000000000000000000000000000000000000000000000000000000000815260040180806020018281038252602881526020018061518d6028913960400191505060405180910390fd5b505b505050505050565b613f038160096000858152602001908152602001600020546138c290919063ffffffff16565b6009600084815260200190815260200160002081905550613f258383836149e4565b505050565b613fe5846323b872dd60e01b858585604051602401808473ffffffffffffffffffffffffffffffffffffffff1681526020018373ffffffffffffffffffffffffffffffffffffffff1681526020018281526020019350505050604051602081830303815290604052907bffffffffffffffffffffffffffffffffffffffffffffffffffffffff19166020820180517bffffffffffffffffffffffffffffffffffffffffffffffffffffffff83818316178352505050506148e2565b50505050565b613ff3615061565b600860008673ffffffffffffffffffffffffffffffffffffffff1673ffffffffffffffffffffffffffffffffffffffff16815260200190815260200160002060405180606001604052908160008201548152602001600182015481526020016002820160009054906101000a900460ff1615151515815250509050600115156141028660078054806020026020016040519081016040528092919081815260200182805480156140f857602002820191906000526020600020905b8160009054906101000a900473ffffffffffffffffffffffffffffffffffffffff1673ffffffffffffffffffffffffffffffffffffffff16815260200190600101908083116140ae575b5050505050614423565b151514614177576040517f08c379a00000000000000000000000000000000000000000000000000000000081526004018080602001828103825260138152602001807f546f6b656e206e6f7420737570706f727465640000000000000000000000000081525060200191505060405180910390fd5b600084116141ed576040517f08c379a000000000000000000000000000000000000000000000000000000000815260040180806020018281038252601b8152602001807f436f6e747261637420616d6f756e74206d757374206265203e2030000000000081525060200191505060405180910390fd5b60008311614263576040517f08c379a00000000000000000000000000000000000000000000000000000000081526004018080602001828103825260188152602001807f537472696b65207072696365206d757374206265203e2030000000000000000081525060200191505060405180910390fd5b60008160200151848161427257fe5b06146142e6576040517f08c379a000000000000000000000000000000000000000000000000000000000815260040180806020018281038252601b8152602001807f57726f6e6720737472696b65507269636520696e6372656d656e74000000000081525060200191505060405180910390fd5b42821161435b576040517f08c379a00000000000000000000000000000000000000000000000000000000081526004018080602001828103825260198152602001807f45787069726174696f6e20616c7265616479207061737365640000000000000081525060200191505060405180910390fd5b6000600554838161436857fe5b06146143bf576040517f08c379a00000000000000000000000000000000000000000000000000000000081526004018080602001828103825260248152602001806152a96024913960400191505060405180910390fd5b5050505050565b6143e183838360405180602001604052806000815250614c00565b61440781600960008581526020019081526020016000205461383a90919063ffffffff16565b6009600084815260200190815260200160002081905550505050565b6000808251905060005b81811015614492578473ffffffffffffffffffffffffffffffffffffffff1684828151811061445857fe5b602002602001015173ffffffffffffffffffffffffffffffffffffffff16141561448757600192505050614499565b80600101905061442d565b5060009150505b92915050565b606080600167ffffffffffffffff811180156144ba57600080fd5b506040519080825280602002602001820160405280156144e95781602001602082028036833780820191505090505b50905082816000815181106144fa57fe5b60200260200101818152505080915050919050565b61452e8473ffffffffffffffffffffffffffffffffffffffff166149d1565b15614814578373ffffffffffffffffffffffffffffffffffffffff1663f23a6e6187878686866040518663ffffffff1660e01b8152600401808673ffffffffffffffffffffffffffffffffffffffff1681526020018573ffffffffffffffffffffffffffffffffffffffff16815260200184815260200183815260200180602001828103825283818151815260200191508051906020019080838360005b838110156145e75780820151818401526020810190506145cc565b50505050905090810190601f1680156146145780820380516001836020036101000a031916815260200191505b509650505050505050602060405180830381600087803b15801561463757600080fd5b505af192505050801561466b57506040513d602081101561465757600080fd5b810190808051906020019092919050505060015b614775576146776150a2565b806146825750614724565b806040517f08c379a00000000000000000000000000000000000000000000000000000000081526004018080602001828103825283818151815260200191508051906020019080838360005b838110156146e95780820151818401526020810190506146ce565b50505050905090810190601f1680156147165780820380516001836020036101000a031916815260200191505b509250505060405180910390fd5b6040517f08c379a00000000000000000000000000000000000000000000000000000000081526004018080602001828103825260348152602001806151596034913960400191505060405180910390fd5b63f23a6e6160e01b7bffffffffffffffffffffffffffffffffffffffffffffffffffffffff1916817bffffffffffffffffffffffffffffffffffffffffffffffffffffffff191614614812576040517f08c379a000000000000000000000000000000000000000000000000000000000815260040180806020018281038252602881526020018061518d6028913960400191505060405180910390fd5b505b505050505050565b600080831182906148c8576040517f08c379a00000000000000000000000000000000000000000000000000000000081526004018080602001828103825283818151815260200191508051906020019080838360005b8381101561488d578082015181840152602081019050614872565b50505050905090810190601f1680156148ba5780820380516001836020036101000a031916815260200191505b509250505060405180910390fd5b5060008385816148d457fe5b049050809150509392505050565b6060614944826040518060400160405280602081526020017f5361666545524332303a206c6f772d6c6576656c2063616c6c206661696c65648152508573ffffffffffffffffffffffffffffffffffffffff16614e039092919063ffffffff16565b90506000815111156149cc5780806020019051602081101561496557600080fd5b81019080805190602001909291905050506149cb576040517f08c379a000000000000000000000000000000000000000000000000000000000815260040180806020018281038252602a8152602001806153e4602a913960400191505060405180910390fd5b5b505050565b600080823b905060008111915050919050565b600073ffffffffffffffffffffffffffffffffffffffff168373ffffffffffffffffffffffffffffffffffffffff161415614a6a576040517f08c379a00000000000000000000000000000000000000000000000000000000081526004018080602001828103825260238152602001806153246023913960400191505060405180910390fd5b6000614a74613a7e565b9050614aa481856000614a868761449f565b614a8f8761449f565b60405180602001604052806000815250613a86565b614b2182604051806060016040528060248152602001615237602491396002600087815260200190815260200160002060008873ffffffffffffffffffffffffffffffffffffffff1673ffffffffffffffffffffffffffffffffffffffff16815260200190815260200160002054613a8e9092919063ffffffff16565b6002600085815260200190815260200160002060008673ffffffffffffffffffffffffffffffffffffffff1673ffffffffffffffffffffffffffffffffffffffff16815260200190815260200160002081905550600073ffffffffffffffffffffffffffffffffffffffff168473ffffffffffffffffffffffffffffffffffffffff168273ffffffffffffffffffffffffffffffffffffffff167fc3d58168c5ae7397731d063d5bbf3d657854427343f4c083240f7aacaa2d0f628686604051808381526020018281526020019250505060405180910390a450505050565b600073ffffffffffffffffffffffffffffffffffffffff168473ffffffffffffffffffffffffffffffffffffffff161415614c86576040517f08c379a000000000000000000000000000000000000000000000000000000000815260040180806020018281038252602181526020018061545f6021913960400191505060405180910390fd5b6000614c90613a7e565b9050614cb181600087614ca28861449f565b614cab8861449f565b87613a86565b614d14836002600087815260200190815260200160002060008873ffffffffffffffffffffffffffffffffffffffff1673ffffffffffffffffffffffffffffffffffffffff1681526020019081526020016000205461383a90919063ffffffff16565b6002600086815260200190815260200160002060008773ffffffffffffffffffffffffffffffffffffffff1673ffffffffffffffffffffffffffffffffffffffff168152602001908152602001600020819055508473ffffffffffffffffffffffffffffffffffffffff16600073ffffffffffffffffffffffffffffffffffffffff168273ffffffffffffffffffffffffffffffffffffffff167fc3d58168c5ae7397731d063d5bbf3d657854427343f4c083240f7aacaa2d0f628787604051808381526020018281526020019250505060405180910390a4614dfc8160008787878761450f565b5050505050565b6060614e128484600085614e1b565b90509392505050565b6060614e26856149d1565b614e98576040517f08c379a000000000000000000000000000000000000000000000000000000000815260040180806020018281038252601d8152602001807f416464726573733a2063616c6c20746f206e6f6e2d636f6e747261637400000081525060200191505060405180910390fd5b600060608673ffffffffffffffffffffffffffffffffffffffff1685876040518082805190602001908083835b60208310614ee85780518252602082019150602081019050602083039250614ec5565b6001836020036101000a03801982511681845116808217855250505050505090500191505060006040518083038185875af1925050503d8060008114614f4a576040519150601f19603f3d011682016040523d82523d6000602084013e614f4f565b606091505b50915091508115614f64578092505050615019565b600081511115614f775780518082602001fd5b836040517f08c379a00000000000000000000000000000000000000000000000000000000081526004018080602001828103825283818151815260200191508051906020019080838360005b83811015614fde578082015181840152602081019050614fc3565b50505050905090810190601f16801561500b5780820380516001836020036101000a031916815260200191505b509250505060405180910390fd5b949350505050565b6040518060800160405280600073ffffffffffffffffffffffffffffffffffffffff16815260200160008152602001600081526020016000151581525090565b604051806060016040528060008152602001600081526020016000151581525090565b6000601f19601f8301169050919050565b60008160e01c9050919050565b600060443d10156150b257615155565b60046000803e6150c3600051615095565b6308c379a081146150d45750615155565b60405160043d036004823e80513d602482011167ffffffffffffffff8211171561510057505050615155565b808201805167ffffffffffffffff81111561511f575050505050615155565b8060208301013d850181111561513a57505050505050615155565b61514382615084565b60208401016040528296505050505050505b9056fe455243313135353a207472616e7366657220746f206e6f6e2045524331313535526563656976657220696d706c656d656e746572455243313135353a204552433131353552656365697665722072656a656374656420746f6b656e73455243313135353a2062616c616e636520717565727920666f7220746865207a65726f2061646472657373455243313135353a2062617463682062616c616e636520717565727920666f7220746865207a65726f20616464726573734f776e61626c653a206e6577206f776e657220697320746865207a65726f2061646472657373455243313135353a206275726e20616d6f756e7420657863656564732062616c616e6365455243313135353a2063616c6c6572206973206e6f74206f776e6572206e6f7220617070726f76656443616e742063616e63656c206d6f7265206f7074696f6e73207468616e207772697474656e57726f6e672065787069726174696f6e2074696d657374616d7020696e6372656d656e74455243313135353a207472616e7366657220746f20746865207a65726f2061646472657373455243313135353a207472616e736665722063616c6c6572206973206e6f74206f776e6572206e6f7220617070726f766564455243313135353a206275726e2066726f6d20746865207a65726f2061646472657373455243313135353a20696e73756666696369656e742062616c616e636520666f72207472616e73666572536166654d6174683a206d756c7469706c69636174696f6e206f766572666c6f774e6f206f7074696f6e2066756e647320746f20636c61696d20666f7220746869732061646472657373455243313135353a2073657474696e6720617070726f76616c2073746174757320666f722073656c665361666545524332303a204552433230206f7065726174696f6e20646964206e6f742073756363656564455243313135353a206163636f756e747320616e6420696473206c656e677468206d69736d61746368455243313135353a2069647320616e6420616d6f756e7473206c656e677468206d69736d61746368455243313135353a206d696e7420746f20746865207a65726f2061646472657373a26469706673582212207bb9ff5b0198781ad6dbc924fe127ba3ab75652e97e48c5173d77a78aaa4177064736f6c634300060c0033",
  "linkReferences": {},
  "deployedLinkReferences": {}
}